:020000040800F2
:100000004807002099010008AF0D0008B708000854
:10001000AB0D000855060008F718000800000000A6
:100020000000000000000000000000002113000894
:100030005906000800000000850F00080D14000894
:10004000B3010008B3010008B3010008F912000869
:10005000B3010008B3010008B3010008B3010008B0
:10006000B3010008B3010008B3010008B3010008A0
:10007000B3010008B3010008B3010008B301000890
:10008000B3010008B3010008B3010008B301000880
:10009000B3010008B3010008B3010008B301000870
:1000A000B3010008B3010008B3010008B301000860
:1000B000B3010008B3010008B3010008B301000850
:1000C000B3010008B3010008B3010008B301000840
:1000D000B301000829160008B3010008B3010008A5
:1000E000B3010008B1120008B301000800F002F8E3
:1000F00000F042F80AA090E8000C82448344AAF180
:100100000107DA4501D100F037F8AFF2090EBAE87D
:100110000F0013F0010F18BFFB1A43F0010318473B
:100120007820000098200000103A24BF78C878C1D9
:10013000FAD8520724BF30C830C144BF04680C60ED
:10014000704700000023002400250026103A28BF35
:1001500078C1FBD8520728BF30C148BF0B60704739
:10016000642900F07180632900F02082002070472C
:100170001FB51FBD10B510BD00F03AFA1146FFF7CC
:10018000F7FF01F0F7FB00F058FA03B4FFF7F2FFB6
:1001900003BC01F0B9FB000009488047094800474B
:1001A000FEE7FEE7FEE7FEE7FEE7FEE7FEE7FEE727
:1001B000FEE7FEE704480549054A064B7047000084
:1001C00011140008ED000008480100204807002035
:1001D0004803002048030020704700000FB4044982
:1001E00010B503AA029800F0EDF910BC5DF814FBFD
:1001F0001800002070B50C460546012A05D0287865
:10020000800600D5EA69002302E0012305E05B1CBB
:10021000934202D2E05C0028F9D1A869E618C01A1E
:10022000A861286A184428622846AFF3008004E0D9
:10023000D5E9012114F8010B9047B442F8D32846C0
:10024000AFF3008070BD00002DE9F04106460024A8
:1002500010687529314616A510D0AFF3008000282C
:1002600002DA404213A507E031688A0701D512A5DA
:1002700002E0490704D511A5012401E0AFF3008095
:1002800000210A2206F1240709E0B0FBF2FCB0FBD2
:10029000F2F302FB1C00303078541846491C002849
:1002A000F3D123462A463046BDE8F04100F002B9BA
:1002B000000000002D0000002B00000020000000C6
:1002C0002DE9F05F894604464FF0000ADFF874B16B
:1002D000FB44C0F820A02046E1688847002874D07D
:1002E000252806D0D4E901219047206A401C2062CD
:1002F000F1E700265F462046E1688847202805464A
:1003000007DB312D05D2781910F8200C08B106430F
:10031000F1E7B00701D526F00406C4F81CA00027B9
:10032000C4F818A02A2D09D0284601F0E6FA38B3FF
:1003300004EB8708303DC8F8185019E059F8041B41
:10034000204604EB87029161E1688847012F05464A
:1003500018D1E069002820DA26F020061DE0D8F840
:10036000180000EB800005EB40003038C8F818009A
:100370002046E1688847054601F0BFFA0028EED123
:10038000012F0AD02E2D08D12046E16888477F1C16
:100390000546022F46F02006C4DBA069002803DAD8
:1003A000404246F00106A061F00701D026F0100699
:1003B0006C2D0BD0682D09D04C2D39D06A2D35D03D
:1003C000742D35D07A2D33D016E038E0E1682F4611
:1003D00020468847B842054609D16C2F26D04FF4F5
:1003E0008060E168064320468847054604E06C2F9C
:1003F0001AD04FF4807006430DB3A5F141001928BF
:1004000002D8203546F400664A4629462046266032
:100410004E46FFF7A5FE80B101280BD0F61D26F051
:10042000070000F1080956E74020E4E78020D8E7FC
:100430000020D6E706F104094DE7284652E7206A76
:10044000BDE8F09FB01E000010B5203AC0F00B8050
:10045000B1E81850203AA0E81850B1E81850A0E8C8
:100460001850BFF4F5AF5FEA027C24BFB1E8185022
:10047000A0E8185044BF18C918C0BDE810405FEA92
:10048000827C24BF51F8043B40F8043B08BF70470E
:10049000D20728BF31F8023B48BF11F8012B28BF13
:1004A00020F8023B48BF00F8012B704770477047A7
:1004B000704770472DE9F0470D469946924604462D
:1004C00000F124080168880604D5E06921F01001D4
:1004D000216000E00120A84201DD471B00E0002769
:1004E000A1697A1902EB0900081AA0612078C006F8
:1004F00002D42046AFF30080002608E0D4E90121B1
:100500001AF806009047206A401C761C20624E456F
:10051000F4DB2078C0060AD52046AFF3008006E061
:10052000D4E9012130209047206A401C2062381E07
:10053000A7F10107F4DC07E0D4E9012118F8050070
:100540009047206A401C2062281EA5F10105F3DCBB
:100550002046AFF300802078000602D50220BDE8D7
:10056000F0870120FBE7000001694A1C026108785E
:10057000704700B58FB0CDE90131002105910549E3
:100580007944CDE9031011466846FFF799FE0FB094
:1005900000BD0000E5FFFFFF10B5436913B1AFF3E5
:1005A000008001E0FFF726FE012010BD127800F167
:1005B00024010A7000224A700122EDE711684FF011
:1005C000FF32E9E7074B70B50D467B44FFF7D1FFDB
:1005D0000446284600F008F810B14FF0FF3070BD17
:1005E000204670BD8B130000007B00F08000704738
:1005F000754600F02BF8AE4605006946534620F0DC
:100600000700854618B020B5FFF7D4FDBDE82040AF
:100610004FF000064FF000074FF000084FF0000BBE
:1006200021F00701AC46ACE8C009ACE8C009ACE871
:10063000C009ACE8C0098D46704710B50446AFF359
:1006400000802046BDE81040FFF79FBD004870477E
:10065000E800002000BFFEE77047000008B5012158
:100660000C2000F0A1FC48208DF80300C020ADF85C
:1006700000006946064800F085F80420ADF8000047
:1006800048208DF803006946024800F07BF808BD59
:1006900000080140000C014070B5002540212848A9
:1006A00000F0FBF810B100202649087040212448D2
:1006B00000F0F3F8002830D12248007868BB6420AD
:1006C00001F032F90421204800F0E7F80446032045
:1006D00001F01DF940211A4800F0DFF8E8B90CB923
:1006E000012500E002250020184908800AE017488B
:1006F0000088401C15490880012012490870142008
:1007000001F012F940210E4800F0C7F828B90F484F
:1007100000884EF660218842E9DB8021084800F01D
:10072000BCF858B90748007840B9142001F0EFF838
:100730008021034800F0B1F800B90325284670BDB8
:100740000008014014000020000C014016000020A9
:100750000549096821F01001034A11601146096832
:100760000143116070470000002002400146002054
:10077000034A106800F0380008431060704700001A
:10078000002002402DE9F04102460025002600200D
:1007900000230024002791F803C00CF00F0591F806
:1007A00003C00CF0100CBCF1000F03D091F802C094
:1007B0004CEA050591F800C0BCF1000F31D0146877
:1007C00000202BE04FF0010C0CFA00F3B1F800C050
:1007D0000CEA03069E4220D183004FF00F0C0CFA66
:1007E00003F7BC4305FA03FC4CEA040491F803C088
:1007F000BCF1280F06D14FF0010C0CFA00FCC2F836
:1008000014C00AE091F803C0BCF1480F05D14FF0C5
:10081000010C0CFA00FCC2F810C0401C0828D1D30F
:100820001460B1F800C0BCF1FF0F34DD5468002043
:100830002EE000F1080C4FF0010808FA0CF3B1F8B3
:1008400000C00CEA03069E4221D183004FF00F0C3A
:100850000CFA03F7BC4305FA03FC4CEA040491F8D4
:1008600003C0BCF1280F05D100F1080C08FA0CF800
:10087000C2F8148091F803C0BCF1480F07D100F111
:10088000080C4FF0010808FA0CF8C2F81080401C60
:100890000828CED35460BDE8F0810246002093685A
:1008A0000B400BB1012000E0002070470AB101614C
:1008B00000E04161704700BFFEE721B1028842F4C9
:1008C0008062028004E002884FF6FF331A40028003
:1008D000704770B502460024002500230020958A49
:1008E000138B1B0445EA030626F07F4404EA010645
:1008F0008E4201D1012000E0002070BD21B10288AC
:1009000042F00102028004E002884FF6FE731A40B2
:10091000028070471FB500F021F80020ADF80400F8
:100920004BF6FF70ADF80600C020ADF808004FF49C
:100930008060ADF80A000001ADF80C000548009099
:100940006946054800F05AF801210348FFF7D6FF31
:100950001FBD0000400D03000054004008B50121F8
:100960001C2000F021FB0121480500F00DFBC020F8
:10097000ADF800001C208DF8030003208DF8020064
:1009800069460248FFF7FEFE08BD0000000C01406A
:1009900021B1028842F48072028004E002884FF69E
:1009A000FF631A400280704721B1028842F400724E
:1009B000028004E002884FF6FF531A40028070471D
:1009C0000CB50246002000230193009300920B0F08
:1009D000019321F07F41019B1BB1009B14330093D5
:1009E00003E0090C009B18330093009B1B680B402D
:1009F0000BB1012000E000200CBD00002DE9F04308
:100A000085B004460D460026B1460427DFF8CC80A9
:100A1000A6884FF6C0700640684600F033FBDDF84C
:100A200008802F48B8FBF0F01FFA80F946EA090663
:100A3000A68020884FF6FE710840208000262949B4
:100A4000286888420CD828684000B8FBF0F087B2CC
:100A5000042F00DA04273E4309F10100208427E037
:100A6000E8884BF6FF71884206D1286800EB400009
:100A7000B8FBF0F087B209E0286800EBC00101EB99
:100A80000010B8FBF0F087B247F48047C7F30B00C3
:100A900008B947F0010747F4004006434FF4967049
:100AA00009FB00F04FF47A7190FBF1F0401C2084B8
:100AB000A683208840F00100208026884FF6F5307C
:100AC0000640A8886989084306432680A8892989A1
:100AD0000843208105B0BDE8F083000000127A00D1
:100AE00040420F00A08601002DE9F04106460F4666
:100AF00015461C4600BF4FF400313248FFF760FF37
:100B00000028F8D101212F48FFF742FF00BF2E49EE
:100B10002C48FFF7DEFE0028F9D000223146294894
:100B200000F0E0F800BF29492648FFF7D2FE002870
:100B3000F9D001212348FFF7E1FE3946214800F0B2
:100B4000DAF800BF2149891C1E48FFF7C2FE0028C1
:100B5000F8D001211B48FFF71BFF00BF1A491948B5
:100B6000FFF7B7FE0028F9D001223146154800F002
:100B7000B9F800BF1449491C1248FFF7AAFE002823
:100B8000F8D016E0012C07D100210E48FFF795FEA2
:100B900001210C48FFF708FF0B493F310948FFF7D7
:100BA00098FE30B1074800F013F828706D1C601EE5
:100BB00084B2002CE6D101210248FFF77EFEBDE899
:100BC000F081000000540040010003008200070093
:100BD0000146088AC0B270472DE9F04105460F462C
:100BE00014461E4601211D48FFF7D2FE00BF1C49D6
:100BF0001A48FFF76EFE0028F9D000222946174850
:100C000000F070F800BF17491448FFF762FE002893
:100C1000F9D03946114800F06EF800BF1149891C1F
:100C20000E48FFF756FE0028F8D00CE021780B485C
:100C300000F061F8641C00BF0A49891C0748FFF7EF
:100C400048FE0028F8D0301EA6F101018EB2EDD189
:100C500001210248FFF7A8FEBDE8F08100540040E2
:100C6000010003008200070070B504460E461546D9
:100C700001211948FFF78CFE00BF18491648FFF7FD
:100C800028FE0028F9D000222146134800F02AF857
:100C900000BF13491048FFF71CFE0028F9D0314669
:100CA0000D4800F028F800BF0D49891C0A48FFF7DD
:100CB00010FE0028F8D02946074800F01CF800BFB5
:100CC0000749891C0448FFF704FE0028F8D00121D9
:100CD0000148FFF769FE70BD0054004001000300A9
:100CE0008200070012B141F0010102E04FF6FE73ED
:100CF00019400182704701827047F8B50646022309
:100D00006A4600219E20FFF7EFFE002400259DF893
:100D100000400020307004F0800028B101203070C5
:100D2000E043C4B2601CC4B204F0010008B1681C06
:100D3000C5B204F0020008B1A81CC5B204F004005A
:100D400008B1281DC5B204F0080010B105F1080073
:100D5000C5B204F0100010B105F11000C5B204F0E6
:100D6000200010B105F12000C5B204F0400010B120
:100D700005F14000C5B2761C357000259DF8014094
:100D800004F0200010B105F10C00C5B204F04000E1
:100D900010B105F11900C5B204F0800010B105F1E1
:100DA0003200C5B2761C3570F8BD00BFFEE7704753
:100DB00070B5002100230F22C47804B3154C2468B9
:100DC00004F4E064C4F5E064210AC1F10403CA40FC
:100DD000447804FA03F184781440214309010E4C4D
:100DE0000678A155047804F01F050124AC4005786D
:100DF0006D11AD0005F1E025C5F8004109E004786A
:100E000004F01F050124AC40044D0678761145F826
:100E1000264070BD0CED00E000E400E080E100E061
:100E20002DE9F04705460C4616464FF00008A01C79
:100E3000C4B2C14636E005F1B000C2B2002178204C
:100E4000FFF712FF2746E01704EB10700011103077
:100E5000C2B200217820FFF707FFE01704EB107003
:100E60000011A4EB0010C2B200217820FFF7FCFEB5
:100E700000270FE008EB0610A0F500700C490A5C93
:100E800040217820FFF7F0FE08F1010000F0FF0894
:100E9000781CC7B2082FEDDB681CC5B209F1010050
:100EA00000F0FF09B9F1020FC5DBBDE8F0870000D3
:100EB000841B000870B506460C46002508E014F8AF
:100EC000012BE806010E3046FFF7AAFF681CC5B2E9
:100ED00020780028F3D170BD70B5B0241BE0224605
:100EE00000217820FFF7C0FE102200217820FFF7B4
:100EF000BBFE002211467820FFF7B6FE002506E073
:100F0000002240217820FFF7AFFE681CC5B2842D77
:100F1000F6DB601CC4B2B82CE1DB70BD08B505A0DF
:100F20000068009003236A4600217820FFF754FEF2
:100F300008BD0000AE8D100000B587B01C2206A1D0
:100F40006846FFF781FA1C236A4600217820FFF7E4
:100F500043FE07B000BD0000AE0010D580A83FD30F
:100F600000B0408D14A1C8DA1281FFD9F1DB302026
:100F700000A4A6AF10B5FFF7D1FFFFF7ADFFFFF755
:100F8000DBFF10BD7047000029B1064AD269024359
:100F9000044BDA6104E0034AD2698243014BDA610F
:100FA000704700000010024029B1064A92690243CE
:100FB000044B9A6104E0034A92698243014B9A61AF
:100FC000704700000010024010B500F035F84FF4F3
:100FD000803000F0F3F800F04FF90446012C24D1E2
:100FE0004FF4E011000400F02DF9002000F0DAF8D1
:100FF000A00200F009F9002000F012F90220FFF72A
:10100000B5FB1020FFF7A4FB012000F015F900BF8D
:10101000392000F0A1F80028FAD0022000F020F9D1
:1010200000BF00F0B7F80828FBD1012144F27C0092
:10103000FFF7BAFF10BD00000F48006840F0010044
:101040000D490860084640680C4908400A49486054
:10105000084600680A4908400749086008460068D1
:1010600020F4802008600846406820F4FE004860B4
:101070004FF41F0088607047001002400000FFF826
:10108000FFFFF6FE30B500210022002400232D4D85
:101090006D6805F00C0121B1042905D0082923D180
:1010A00005E0294D056022E0274D05601FE0254D34
:1010B0006D6805F47012234D6D6805F480340225C7
:1010C00005EB92421CB9214D554305600BE01D4DC7
:1010D0006D6805F400351DB11C4D5543056002E0F7
:1010E000194D5543056002E0174D056000BF00BF74
:1010F000144D6D6805F0F0010909154D6B5C05682C
:10110000DD4045600F4D6D6805F4E061090A104D42
:101110006B5C4568DD4085600A4D6D6805F4605183
:10112000C90A0B4D6B5C4568DD40C560054D6D68B7
:1011300005F44041890B074D6B5CC568B5FBF3F5C1
:10114000056130BD0010024000127A0000093D0028
:10115000000000201000002010B5014600220023EE
:1011600000204A11012A02D1094C236806E0022A14
:1011700002D1074C236A01E0054C636A01F01F02AB
:10118000012494401C400CB1012000E0002010BD5F
:10119000001002400248406800F00C007047000058
:1011A0000010024001460020034A506820F0F00081
:1011B0000843506070470000001002401149096860
:1011C00021F480310F4A11601146096821F4802111
:1011D0001160B0F5803F03D0B0F5802F0ED106E04E
:1011E0000849096841F48031064A116007E0054961
:1011F000096841F4A021034A116000E000BF00BF6C
:10120000704700000010024001460020034A506869
:1012100020F4E06008435060704700000010024076
:1012200001460020034A506820F4605040EAC100A3
:101230005060704700100240014908667047000086
:101240000000424202460020044B586820F47C1003
:1012500042EA01031843014B5860704700100240F6
:1012600001460020034A506820F003000843506004
:10127000704700000010024038B5002000900024A4
:10128000002500BF3120FFF767FF05460098401C8E
:1012900000900098B0F5A06F01D0002DF2D0312061
:1012A000FFF75AFF08B1012400E00024204638BDB2
:1012B00010B5022000F00EF8022000F003F800F054
:1012C00025F810BD024909888143014A1180704701
:1012D0000428004001460020064A12880A40D0B285
:1012E000044A121F12880A4012B108B1012000E01E
:1012F000002070470428004010B50120FFF7EAFFE6
:101300000120FFF7DFFF00F001F810BD00BF034828
:10131000008800F020000028F9D070470428004021
:10132000704710B500F002F810BD00000CB50020A9
:10133000019000903348006840F4803031490860E3
:1013400000BF3048006800F4003000900198401C55
:101350000190009818B90198B0F5A06FF1D1294813
:10136000006800F4003010B10120009001E000207E
:1013700000900098012843D12348006840F01000F5
:10138000214908600846006820F00300086008460C
:10139000006840F0020008601A4840681949486037
:1013A0000846406848600846406840F480604860ED
:1013B0000846406820F47C1048600846406840F4C5
:1013C000E81048600846006840F08070086000BF80
:1013D0000C48006800F000700028F9D00948406807
:1013E00020F00300074948600846406840F00200CA
:1013F000486000BF0348406800F00C000828F9D19D
:101400000CBD0000001002400020024070470000A8
:1014100010B51348006840F0010011490860084603
:101420004068104908400E494860084600680E4967
:1014300008400B4908600846006820F480200860D6
:101440000846406820F4FE0048604FF41F008860A2
:10145000FFF767FF4FF000600449086010BD00000F
:10146000001002400000FFF8FFFFF6FE08ED00E06C
:1014700008B501211C20FFF797FD4FF4C050ADF8CF
:10148000000010208DF8030003208DF8020069464B
:101490000D48FFF777F9012211030B48FFF706FA11
:1014A0000122D1020848FFF701FA00F033F8442086
:1014B00000F06EF800F052F800F02CF88C2000F0EC
:1014C00067F800F04BF808BD0008014030B587B060
:1014D00004460D46182209A101A8FEF7B5FF00F049
:1014E00019F804F1C001C8B200F052F801A9485D32
:1014F00000F04EF800F032F807B030BD3F065B4F09
:10150000666D7D077F6FBF86DBCFE6EDFD87FFEF62
:101510000000000010B5012211030F48FFF7C6F9C3
:101520000122D1020C48FFF7C1F9012000F0FCF9BB
:1015300000224FF480510848FFF7B8F9012000F06D
:10154000F3F900224FF400610348FFF7AFF90120DF
:1015500000F0EAF910BD00000008014010B50022BB
:101560004FF480510948FFF7A1F90122D102074841
:10157000FFF79CF9012000F0D7F90122110303487D
:10158000FFF794F9012000F0CFF910BD00080140E9
:1015900070B50446254600224FF480512148FFF7DC
:1015A00085F900224FF400611E48FFF77FF90026FD
:1015B00028E000224FF400611A48FFF777F9012074
:1015C00000F0B2F905F0010040B101221103154805
:1015D000FFF76CF9012000F0A7F908E000224FF4B2
:1015E00080511048FFF762F9012000F09DF90122B7
:1015F000D1020C48FFF75AF9012000F095F96D105F
:10160000701CC6B2082ED4DB00224FF4805105486E
:10161000FFF74CF900224FF400610248FFF746F94A
:1016200070BD00000008014010B540F225511F4870
:1016300000F0A0F8002838D01C4800F057F9C4B2D8
:1016400021461BA0FEF7CAFD1A48008800F400409E
:1016500058BB1848008800F4804060B10A2C03D0C1
:1016600000201449088020E01248008840F400401F
:101670001049088019E00D2C06D10E48008840F46E
:1016800080400C49088010E00A480088C0F30D0033
:1016900009490C5407480088401C06490880084640
:1016A0000088C72801DD0020088010BD00380140F7
:1016B000256300001C0000202000002010B586B02B
:1016C0000446012144F20400FFF76EFC4FF4007061
:1016D000ADF8140003208DF8160018208DF81700BF
:1016E00005A91C48FFF74EF84FF48060ADF81400D0
:1016F00004208DF8170005A91648FFF743F82520A8
:101700008DF8000003208DF801008DF80200012003
:101710008DF803006846FFF74BFB01940020ADF8FD
:101720000800ADF80A00ADF80C00ADF810000C2070
:10173000ADF80E0001A9084800F06CF8002240F254
:101740002551054800F040F80121034800F006F853
:1017500006B010BD000801400038014021B1828967
:1017600042F40052828104E082894DF6FF731A40F0
:101770008281704770B502460024002300250020B6
:1017800040F66A16B14200D100BFC1F3421501F024
:101790001F03012606FA03F3012D02D19689334077
:1017A00006E0022D02D1168A334001E0968A3340CA
:1017B0000C12012606FA04F41688344013B10CB159
:1017C000012000E0002070BDF0B503460024002693
:1017D0000025002040F66A17B94200D100BF184624
:1017E000C1F3421401F01F06012707FA06F5012C88
:1017F00001D10C3004E0022C01D1103000E0143093
:101800001AB107682F43076002E00768AF4307601B
:10181000F0BD00002DE9F04786B005460E460024D5
:10182000A24600BFA1460027B08900B100BF2F46E5
:101830002C8A4CF6FF700440F08804432C82AC895B
:101840004EF6F3100440B08831890843718908438B
:101850000443AC81AC8A4FF6FF400440B089044396
:10186000AC8201A8FFF70EFC1F48874202D1DDF8C9
:1018700010A001E0DDF80CA0A88900F4004040B100
:101880000AEBCA0000EB0A1031684900B0FBF1F81E
:1018900007E00AEBCA0000EB0A1031688900B0FBD0
:1018A000F1F86420B8FBF0F004012009642101FB89
:1018B0001089A88900F4004040B1322000EBC90033
:1018C000B0FBF1F000F00700044308E0322000EB29
:1018D00009106421B0FBF1F000F00F0004432C81EB
:1018E00006B0BDE8F0870000003801400146888856
:1018F000C0F30800704700BFFEE730380A2801D265
:101900000120704700207047014600BF704700B5B6
:10191000034603E04FF47A7000F006F8181EA3F1B6
:1019200001018BB2F6D100BD00EBC001C9004FF040
:10193000E0225161002191610521116100BF4FF04A
:10194000E021096901F480310029F8D004214FF029
:10195000E02211617047000000BF054A128802F0C2
:101960004002002AF9D0C2B2014B1B1D1A807047F9
:101970000038014008B56420FFF7C9FFFFF724FBDA
:101980004FF4E130FFF79AFEFFF772FDFEF766FEB7
:10199000FEF7C0FFFFF7EEFA6DA10020FFF78AFA0D
:1019A0006FA10420FFF786FA71A10620FFF782FAE3
:1019B00063240A2094FBF0F0303086B23246702166
:1019C0000420FFF72DFA0A2094FBF0F100FB1140F0
:1019D000303086B2324678210420FFF721FA0A20FF
:1019E00094FBF0F0C6B231460020FFF76FFD0A20ED
:1019F00094FBF0F100FB1140C6B231460120FFF725
:101A000065FD14210220FFF761FD14210320FFF77B
:101A10005DFD14210420FFF759FD14210520FFF777
:101A200055FD14210620FFF751FD14210720FFF773
:101A30004DFD8CE06846FFF760F99DF8000020B18D
:101A40002D2238210620FFF7EBF99DF801000A212D
:101A500090FBF1F0303086B2324640210620FFF78D
:101A6000DFF99DF801000A2190FBF1F201FB120061
:101A7000303086B2324648210620FFF7D1F92E22B7
:101A800050210620FFF7CCF99DF802000A2190FBB7
:101A9000F1F0303086B2324658210620FFF7C0F907
:101AA0009DF802000A2190FBF1F201FB1200303098
:101AB00086B2324660210620FFF7B2F9FEF7ECFD50
:101AC00005462846012D04D0022808D003280DD150
:101AD0000AE0601CC4B2632C00DD002406E004B9F7
:101AE0006424601EC4B201E0002400BF00BF5DB3E7
:101AF000214621A0FEF772FB0A2094FBF0F0C6B24B
:101B000031460020FFF7E2FC0A2094FBF0F100FBD5
:101B10001140C6B231460120FFF7D8FC0A2094FBE1
:101B2000F0F0303086B2324670210420FFF778F9A9
:101B30000A2094FBF0F100FB1140303086B23246AF
:101B400078210420FFF76CF90A20FFF7E0FE71E727
:101B50002020202047756F79756C756E000000009D
:101B600020456E636F6F646572204E756D3A00009C
:101B7000202054656D703A006E756D3A25640D0A2B
:101B80000000000000000000000000000000000055
:101B900000000000000038FCFC3800000000000DD0
:101BA0000D000000000E1E00001E0E0000000000D0
:101BB0000000000020F8F820F8F82000020F0F02C3
:101BC0000F0F0200387C444747CC98000306041CE2
:101BD0001C07030030300080C06030000C06030199
:101BE000000C0C0080D87CE4BCD84000070F08082B
:101BF000070F080000101E0E00000000000000008B
:101C0000000000000000F0F80C04000000000307D2
:101C10000C0800000000040CF8F000000000080CA4
:101C20000703000080A0E0C0C0E0A0800002030124
:101C300001030200008080E0E080800000000003DB
:101C40000300000000000000000000000000101E63
:101C50000E000000808080808080800000000000F6
:101C60000000000000000000000000000000000C68
:101C70000C00000000000080C06030000C06030172
:101C800000000000F8FC04C424FCF800070F090859
:101C9000080F0700001018FCFC0000000008080FE7
:101CA0000F080800080C84C4643C18000E0F0908D3
:101CB000080C0C00080C444444FCB800040C080850
:101CC000080F0700C0E0B098FCFC8000000000088E
:101CD0000F0F08007C7C4444C4C48400040C080832
:101CE000080F0700F0F84C4444C08000070F0808B4
:101CF000080F07000C0C0484C47C3C0000000F0F8C
:101D000000000000B8FC444444FCB800070F080879
:101D1000080F0700387C444444FCF8000008080819
:101D20000C07030000000030300000000000000637
:101D30000600000000000030300000000000080E27
:101D4000060000000080C060301808000000010399
:101D5000060C0800404040404040400002020202A1
:101D6000020202000008183060C0800000080C0663
:101D700003010000181C04C4E43C18000000000D1E
:101D80000D000000F0F808C8C8F8F000070F080BB5
:101D90000B0B0100E0F0988C98F0E0000F0F0000B2
:101DA000000F0F0004FCFC4444FCB800080F0F08AF
:101DB000080F0700F0F80C04040C180003070C08C7
:101DC000080C060004FCFC040CF8F000080F0F08D7
:101DD0000C07030004FCFC44E40C1C00080F0F0873
:101DE000080C0E0004FCFC44E40C1C00080F0F0857
:101DF00000000000F0F80C84848C980003070C08A5
:101E000008070F00FCFC404040FCFC000F0F0000E6
:101E1000000F0F00000004FCFC0400000000080F8D
:101E20000F08000000000004FCFC0400070F080875
:101E30000F07000004FCFCC0F03C0C00080F0F0072
:101E4000010F0E0004FCFC0400000000080F0F0846
:101E5000080C0E00FCFC387038FCFC000F0F000072
:101E6000000F0F00FCFC3870E0FCFC000F0F0000BE
:101E7000000F0F00F0F80C040CF8F00003070C083A
:101E80000C07030004FCFC44447C3800080F0F08D6
:101E900000000000F8FC040404FCF800070F080E22
:101EA0003C3F270004FCFC44C4FC3800080F0F0032
:101EB000000F0F00183C6444C49C1800060E08086C
:101EC000080F0700001C0CFCFC0C1C000000080F95
:101ED0000F080000FCFC000000FCFC00070F0808D5
:101EE000080F0700FCFC000000FCFC000103060CCE
:101EF00006030100FCFC008000FCFC00030F0E0345
:101F00000E0F03000C3CF0C0F03C0C000C0F030063
:101F1000030F0C00003C7CC0C07C3C000000080F9C
:101F20000F0800001C0C84C4643C1C000E0F090840
:101F3000080C0E000000FCFC0404000000000F0F61
:101F4000080800003870E0C08000000000000001B8
:101F500003070E0000000404FCFC00000000080859
:101F60000F0F0000080C0603060C0800000000001C
:101F700000000000000000000000000020202020E1
:101F800020202020000003070400000000000000C3
:101F90000000000000A0A0A0E0C00000070F08089B
:101FA000070F080004FCFC2060C08000080F070831
:101FB000080F0700C0E0202020604000070F08083D
:101FC000080C040080C06024FCFC0000070F080817
:101FD000070F0800C0E0A0A0A0E0C000070F08089D
:101FE000080C040040F8FC440C180000080F0F080F
:101FF00000000000C0E02020C0E02000276F48481B
:102000007F3F000004FCFC4020E0C000080F0F00F0
:10201000000F0F00000020ECEC0000000000080F93
:102020000F0800000000000020ECEC0000307040C1
:10203000407F3F0004FCFC80C0602000080F0F01BF
:10204000030E0C00000004FCFC0000000000080F60
:102050000F080000E0E060C060E0C0000F0F000F5C
:10206000000F0F0020E0C02020E0C000000F0F0094
:10207000000F0F00C0E0202020E0C000070F08087C
:10208000080F070020E0C02020E0C000407F7F480C
:10209000080F0700C0E02020C0E02000070F08481C
:1020A0007F7F400020E0C0602060C000080F0F0864
:1020B0000000000040E0A02020604000040C09095E
:1020C0000B0E04002020F8FC202000000000070F69
:1020D000080C0400E0E00000E0E00000070F080842
:1020E000070F080000E0E00000E0E0000003070C3C
:1020F0000C070300E0E0000000E0E000070F0C0721
:102100000C0F07002060C080C0602000080C07038F
:10211000070C0800E0E0000000E0E000474F4848FE
:10212000683F1F00606020A0E06020000C0E0B09DB
:10213000080C0C00004040F8BC040400000000073C
:102140000F080800000000BCBC0000000000000FE9
:102150000F000000000404BCF84040000008080F15
:1021600007000000080C040C080C0400000000002C
:102170000000000080C0603060C0800007070404D9
:10218000040707000400000800000000000000022F
:102190000001000010000000B8210008000000202D
:1021A0002000000028010008D8210008200000209D
:1021B0002807000044010008000000000102030499
:1021C00001020304060708090204060800000000D3
:0821D000000000000000000007
:04000005080000ED02
:00000001FF
