:020000040800F2
:1000000050070020910100088D0D00085B080008D2
:10001000890D000869050008631B00080000000046
:10002000000000000000000000000000F5180008BB
:100030006D05000800000000550F0008E1190008D8
:10004000AB010008AB010008AB01000899150008DE
:10005000AB010008AB010008AB010008AB010008D0
:10006000AB010008AB010008AB010008AB010008C0
:10007000AB010008AB010008AB010008AB010008B0
:10008000AB010008AB010008AB010008AB010008A0
:10009000AB010008AB010008AB010008AB01000890
:1000A000AB010008AB010008AB010008AB01000880
:1000B000AB010008AB010008AB010008AB01000870
:1000C000AB010008AB010008AB010008AB01000860
:1000D000AB010008711A0008AB010008AB01000871
:1000E000AB010008F1120008AB01000800F002F8B3
:1000F00000F03FF80AA090E8000C82448344AAF183
:100100000107DA4501D100F034F8AFF2090EBAE880
:100110000F0013F0010F18BFFB1A43F0010318473B
:10012000D0280000F0280000103A24BF78C878C119
:10013000FAD8520724BF30C830C144BF04680C60ED
:10014000704700000023002400250026103A28BF35
:1001500078C1FBD8520728BF30C148BF0B60704739
:10016000632900F08981002070471FB51FBD10B5BD
:1001700010BD00F0A3F91146FFF7F7FF01F030FDC5
:1001800000F0C1F903B4FFF7F2FF03BC01F0F2FC89
:100190000948804709480047FEE7FEE7FEE7FEE71B
:1001A000FEE7FEE7FEE7FEE7FEE7FEE70448054957
:1001B000054A064B70470000E5190008ED000008ED
:1001C0005001002050070020500300205003002061
:1001D000704700000FB4044910B503AA029800F05C
:1001E00057F910BC5DF814FB1800002070B50C46E0
:1001F0000546012A05D02878800600D5EA69002343
:1002000002E0012305E05B1C934202D2E05C00287F
:10021000F9D1A869E618C01AA861286A18442862AA
:100220002846AFF3008004E0D5E9012114F8010B62
:100230009047B442F8D32846AFF3008070BD000069
:100240002DE9F05F894604464FF0000ADFF874B1EB
:10025000FB44C0F820A02046E1688847002874D0FD
:10026000252806D0D4E901219047206A401C20624D
:10027000F1E700265F462046E168884720280546CA
:1002800007DB312D05D2781910F8200C08B1064390
:10029000F1E7B00701D526F00406C4F81CA000273A
:1002A000C4F818A02A2D09D0284601F05CFC38B308
:1002B00004EB8708303DC8F8185019E059F8041BC2
:1002C000204604EB87029161E1688847012F0546CB
:1002D00018D1E069002820DA26F020061DE0D8F8C1
:1002E000180000EB800005EB40003038C8F818001B
:1002F0002046E1688847054601F035FC0028EED12C
:10030000012F0AD02E2D08D12046E16888477F1C96
:100310000546022F46F02006C4DBA069002803DA58
:10032000404246F00106A061F00701D026F0100619
:100330006C2D0BD0682D09D04C2D39D06A2D35D0BD
:10034000742D35D07A2D33D016E038E0E1682F4691
:1003500020468847B842054609D16C2F26D04FF475
:100360008060E168064320468847054604E06C2F1C
:100370001AD04FF4807006430DB3A5F1410019283F
:1003800002D8203546F400664A46294620462660B3
:100390004E46FFF7E5FE80B101280BD0F61D26F092
:1003A000070000F1080956E74020E4E78020D8E77D
:1003B0000020D6E706F104094DE7284652E7206AF7
:1003C000BDE8F09F8827000010B5203AC0F00B80F0
:1003D000B1E81850203AA0E81850B1E81850A0E849
:1003E0001850BFF4F5AF5FEA027C24BFB1E81850A3
:1003F000A0E8185044BF18C918C0BDE810405FEA13
:10040000827C24BF51F8043B40F8043B08BF70478E
:10041000D20728BF31F8023B48BF11F8012B28BF93
:1004200020F8023B48BF00F8012B70477047704727
:100430007047704701694A1C02610878704700B52F
:100440008FB0CDE901310021059105497944CDE90D
:10045000031011466846FFF7F3FE0FB000BD000021
:10046000E5FFFFFF10B5436913B1AFF3008001E072
:10047000FFF7BCFE012010BD127800F124010A70C4
:1004800000224A700122EDE711684FF0FF32E9E7E0
:10049000074B70B50D467B44FFF7D1FF0446284655
:1004A00000F008F810B14FF0FF3070BD204670BD6D
:1004B0002B170000007B00F080007047754600F0AD
:1004C0002BF8AE4605006946534620F007008546E6
:1004D00018B020B5FFF76AFEBDE820404FF00006D7
:1004E0004FF000074FF000084FF0000B21F007011C
:1004F000AC46ACE8C009ACE8C009ACE8C009ACE85F
:10050000C0098D46704710B50446AFF30080204601
:10051000BDE81040FFF736BE00487047F0000020ED
:1005200010B5012000F038FD002000F035FD10BDB1
:1005300008B5014600200090034800900098084448
:1005400000900098008808BD006C004008B50022AB
:100550000092044A0092009A02440092009A1160AC
:1005600008BD0000006C004000BFFEE770470000BF
:1005700008B501210C2000F0FFFC48208DF8030095
:10058000C020ADF800006946064800F085F8042058
:10059000ADF8000048208DF803006946024800F0DD
:1005A0007BF808BD00080140000C014070B5002533
:1005B0004021284800F044F910B100202649087075
:1005C0004021244800F03CF9002830D1224800782E
:1005D00068BB642001F0DEFA0421204800F030F905
:1005E0000446032001F0C9FA40211A4800F028F916
:1005F000E8B90CB9012500E002250020184908805F
:100600000AE017480088401C15490880012012495B
:100610000870142001F0BEFA40210E4800F010F9D5
:1006200028B90F4800884EF660218842E9DB802116
:10063000084800F005F958B90748007840B9142077
:1006400001F09BFA8021034800F0FAF800B9032575
:10065000284670BD0008014014000020000C014035
:10066000160000200549096821F01001034A1160B5
:1006700011460968014311607047000000200240E4
:1006800001460020034A106800F03800084310605B
:1006900070470000002002402DE9F041024600258D
:1006A0000026002000230024002791F803C00CF04E
:1006B0000F0591F803C00CF0100CBCF1000F03D033
:1006C00091F802C04CEA050591F800C0BCF1000F9A
:1006D00031D0146800202BE04FF0010C0CFA00F32D
:1006E000B1F800C00CEA03069E4220D183004FF00F
:1006F0000F0C0CFA03F7BC4305FA03FC4CEA0404A4
:1007000091F803C0BCF1280F06D14FF0010C0CFA90
:1007100000FCC2F814C00AE091F803C0BCF1480F15
:1007200005D14FF0010C0CFA00FCC2F810C0401CBF
:100730000828D1D31460B1F800C0BCF1FF0F34DD3C
:10074000546800202EE000F1080C4FF0010808FA70
:100750000CF3B1F800C00CEA03069E4221D18300DD
:100760004FF00F0C0CFA03F7BC4305FA03FC4CEAFC
:10077000040491F803C0BCF1280F05D100F1080C66
:1007800008FA0CF8C2F8148091F803C0BCF1480FC5
:1007900007D100F1080C4FF0010808FA0CF8C2F874
:1007A0001080401C0828CED35460BDE8F0810000C2
:1007B000F0B50A46002300240021002500F0004681
:1007C000B6F1004F02D11D4EF16901E01B4E716878
:1007D000C0F3034583B200F44016B6F5401F08D1BC
:1007E00021F07061154E766826F07066134F7E60BA
:1007F00012E000F48016B6F5801F06D1032606FA33
:1008000005F4A14341F0706106E0460D360103FA9C
:1008100006F6B14341F0706122B1460D360103FA8C
:1008200006F6314300F00046B6F1004F02D1034E08
:10083000F16101E0014E7160F0BD00000000014077
:100840000246002093680B400BB1012000E000201D
:100850007047416170470161704700BFFEE721B1F9
:10086000028842F48062028004E002884FF6FF337F
:100870001A400280704770B502460024002500230C
:100880000020958A138B1B0445EA030626F07F445B
:1008900004EA01068E4201D1012000E0002070BD73
:1008A00021B1028842F00102028004E002884FF682
:1008B000FE731A40028070471FB500F021F8002037
:1008C000ADF804004BF6FF70ADF80600C020ADF89F
:1008D00008004FF48060ADF80A000001ADF80C008C
:1008E000054800906946054800F05AF80121034880
:1008F000FFF7D6FF1FBD0000400D0300005400406D
:1009000008B501211C2000F037FB0121480500F04B
:1009100023FBC020ADF800001C208DF8030003204D
:100920008DF8020069460248FFF7B6FE08BD0000D8
:10093000000C014021B1028842F48072028004E080
:1009400002884FF6FF631A400280704721B1028887
:1009500042F40072028004E002884FF6FF531A400E
:10096000028070470CB502460020002301930093DB
:1009700000920B0F019321F07F41019B1BB1009B63
:100980001433009303E0090C009B18330093009B81
:100990001B680B400BB1012000E000200CBD0000E3
:1009A0002DE9F04385B004460D460026B1460427E4
:1009B000DFF8CC80A6884FF6C0700640684600F08D
:1009C00059FBDDF808802F48B8FBF0F01FFA80F9DA
:1009D00046EA0906A68020884FF6FE71084020806E
:1009E00000262949286888420CD828684000B8FBAE
:1009F000F0F087B2042F00DA04273E4309F101002A
:100A0000208427E0E8884BF6FF71884206D12868E9
:100A100000EB4000B8FBF0F087B209E0286800EB7B
:100A2000C00101EB0010B8FBF0F087B247F480473B
:100A3000C7F30B0008B947F0010747F4004006432D
:100A40004FF4967009FB00F04FF47A7190FBF1F0CF
:100A5000401C2084A683208840F001002080268846
:100A60004FF6F5300640A88869890843064326807A
:100A7000A88929890843208105B0BDE8F0830000DA
:100A800000127A0040420F00A08601002DE9F041DB
:100A900006460F4615461C4600BF4FF4003132484B
:100AA000FFF760FF0028F8D101212F48FFF742FF30
:100AB00000BF2E492C48FFF7DEFE0028F9D00022A7
:100AC0003146294800F0E0F800BF29492648FFF7E1
:100AD000D2FE0028F9D001212348FFF7E1FE394674
:100AE000214800F0DAF800BF2149891C1E48FFF7B1
:100AF000C2FE0028F8D001211B48FFF71BFF00BFF2
:100B00001A491948FFF7B7FE0028F9D001223146EB
:100B1000154800F0B9F800BF1449491C1248FFF706
:100B2000AAFE0028F8D016E0012C07D100210E48BB
:100B3000FFF795FE01210C48FFF708FF0B493F31F5
:100B40000948FFF798FE30B1074800F013F8287005
:100B50006D1C601E84B2002CE6D101210248FFF713
:100B60007EFEBDE8F081000000540040010003005B
:100B7000820007000146088AC0B270472DE9F041A3
:100B800005460F4614461E4601211D48FFF7D2FEBA
:100B900000BF1C491A48FFF76EFE0028F9D000225A
:100BA0002946174800F070F800BF17491448FFF7AE
:100BB00062FE0028F9D03946114800F06EF800BFF7
:100BC0001149891C0E48FFF756FE0028F8D00CE0AA
:100BD00021780B4800F061F8641C00BF0A49891CA9
:100BE0000748FFF748FE0028F8D0301EA6F10101A3
:100BF0008EB2EDD101210248FFF7A8FEBDE8F081D9
:100C000000540040010003008200070070B5044654
:100C10000E46154601211948FFF78CFE00BF184902
:100C20001648FFF728FE0028F9D000222146134875
:100C300000F02AF800BF13491048FFF71CFE0028F7
:100C4000F9D031460D4800F028F800BF0D49891C45
:100C50000A48FFF710FE0028F8D02946074800F0A0
:100C60001CF800BF0749891C0448FFF704FE002850
:100C7000F8D001210148FFF769FE70BD0054004023
:100C8000010003008200070012B141F0010102E0FF
:100C90004FF6FE731940018270470182704701468A
:100CA000CA1701EB92729210A1EB820292B96420F2
:100CB00091FBF0F200FB121050B94FF4C87091FB99
:100CC000F0F200FB121008B9012070470020FCE789
:100CD0000120FAE70020F8E7F8B5064602236A4645
:100CE00000219E20FFF7D2FE002400259DF8004041
:100CF0000020307004F0800028B101203070E04303
:100D0000C4B2601CC4B204F0010008B1681CC5B2D2
:100D100004F0020008B1A81CC5B204F0040008B138
:100D2000281DC5B204F0080010B105F10800C5B2D5
:100D300004F0100010B105F11000C5B204F020005D
:100D400010B105F12000C5B204F0400010B105F16A
:100D50004000C5B2761C357000259DF8014004F0B6
:100D6000200010B105F10C00C5B204F0400010B134
:100D700005F11900C5B204F0800010B105F1320090
:100D8000C5B2761C3570F8BD00BFFEE770470000A5
:100D90002DE9F04705460C4616464FF00008A01C0A
:100DA000C4B2C14636E005F1B000C2B200217820DD
:100DB000FFF72CFF2746E01704EB107000111030EE
:100DC000C2B200217820FFF721FFE01704EB10707A
:100DD0000011A4EB0010C2B200217820FFF716FF2B
:100DE00000270FE008EB0610A0F500700C490A5C24
:100DF00040217820FFF70AFF08F1010000F0FF080A
:100E0000781CC7B2082FEDDB681CC5B209F10100E0
:100E100000F0FF09B9F1020FC5DBBDE8F087000063
:100E2000641F000870B506460C46002508E014F85B
:100E3000012BE806010E3046FFF7AAFF681CC5B279
:100E400020780028F3D170BD70B5B0241BE0224695
:100E500000217820FFF7DAFE102200217820FFF72A
:100E6000D5FE022200217820FFF7D0FE002506E003
:100E7000002240217820FFF7C9FE681CC5B2802DF2
:100E8000F6DB601CC4B2B82CE1DB70BD08B505A070
:100E90000068009003236A4600217820FFF76EFE69
:100EA00008BD0000AE8D100000B587B01C2206A161
:100EB0006846FFF789FA1C236A4600217820FFF76D
:100EC0005DFE07B000BD0000AE0010D580A83FD386
:100ED00000B0408D14A1C8DA1281FFD9F1DB3020B7
:100EE00000A4A6AF70B5002420E004F1B000C2B2A7
:100EF00000217820FFF78AFE102200217820FFF7DA
:100F000085FE022200217820FFF780FE002509E0FF
:100F100005EBC41007490A5C40217820FFF776FEF4
:100F2000681CC5B2802DF3DB601CC4B2082CDCDB6E
:100F300070BD0000C425000810B5FFF7A7FFFFF73C
:100F400083FFFFF7B1FF10BD014908627047000041
:100F500000000E427047000029B1064AD2690243E0
:100F6000044BDA6104E0034AD2698243014BDA613F
:100F7000704700000010024029B1064A92690243FE
:100F8000044B9A6104E0034A92698243014B9A61DF
:100F900070470000001002400149086070470000DF
:100FA000400442420348406A40F080700149486270
:100FB000704700000010024010B500F035F84FF403
:100FC000803000F0F3F800F077F90446012C24D1CA
:100FD0004FF4E011000400F047F9002000F0DAF8C7
:100FE000A00200F023F9002000F02CF90220FFF706
:100FF00047FB1020FFF736FB012000F02FF900BF60
:10100000392000F0A1F80028FAD0022000F048F9B9
:1010100000BF00F0B7F80828FBD1012144F27C00A2
:10102000FFF7AAFF10BD00000F48006840F0010064
:101030000D490860084640680C4908400A49486064
:10104000084600680A4908400749086008460068E1
:1010500020F4802008600846406820F4FE004860C4
:101060004FF41F0088607047001002400000FFF836
:10107000FFFFF6FE30B500210022002400232D4D95
:101080006D6805F00C0121B1042905D0082923D190
:1010900005E0294D056022E0274D05601FE0254D44
:1010A0006D6805F47012234D6D6805F480340225D7
:1010B00005EB92421CB9214D554305600BE01D4DD7
:1010C0006D6805F400351DB11C4D5543056002E007
:1010D000194D5543056002E0174D056000BF00BF84
:1010E000144D6D6805F0F0010909154D6B5C05683C
:1010F000DD4045600F4D6D6805F4E061090A104D53
:101100006B5C4568DD4085600A4D6D6805F4605193
:10111000C90A0B4D6B5C4568DD40C560054D6D68C7
:1011200005F44041890B074D6B5CC568B5FBF3F5D1
:10113000056130BD0010024000127A0000093D0038
:10114000000000201000002010B5014600220023FE
:1011500000204A11012A02D1094C236806E0022A24
:1011600002D1074C236A01E0054C636A01F01F02BB
:10117000012494401C400CB1012000E0002010BD6F
:10118000001002400248406800F00C007047000068
:101190000010024001460020034A506820F0F00091
:1011A0000843506070470000001002401149096870
:1011B00021F480310F4A11601146096821F4802121
:1011C0001160B0F5803F03D0B0F5802F0ED106E05E
:1011D0000849096841F48031064A116007E0054971
:1011E000096841F4A021034A116000E000BF00BF7C
:1011F000704700000010024000210B4A11700A4A9B
:10120000203A82F82010012802D0042808D103E0F7
:101210000121054A117004E00521034A117000E024
:1012200000BF00BF704700002010024001460020B0
:10123000034A506820F4E0600843506070470000A3
:101240000010024001460020034A506820F460501C
:1012500040EAC10050607047001002400149086632
:10126000704700000000424202460020044B5868CC
:1012700020F47C1042EA01031843014B5860704788
:101280000010024001490860704700003C044242DF
:101290000249096A0143014A116270470010024085
:1012A00001460020034A506820F0030008435060C4
:1012B000704700000010024038B500200090002464
:1012C000002500BF3120FFF73FFF05460098401C76
:1012D00000900098B0F5A06F01D0002DF2D0312021
:1012E000FFF732FF08B1012400E00024204638BD9A
:1012F00010B5022000F002F9022000F003F800F01F
:1013000065F910BD024909888143014A118070477F
:101310000428004010B50420FFF70AF94AF2A5514D
:10132000884207D000F02AF84AF2A5510420FFF7BE
:101330000DF90DE07B20FFF707FF10B97A20FFF7CA
:1013400003FFFFF72FFE0120FFF79CFF00F048F995
:1013500010BD00000348008840F0100001490880DB
:101360007047000004280040034800884FF6EF71E2
:1013700008400149088070470428004010B5012149
:101380004FF0C050FFF7E8FD0120FFF7DDFDFFF74C
:10139000C7F80120FFF730FF00BF4120FFF7D4FE60
:1013A0000028FAD04FF48070FFF772FF0120FFF79A
:1013B00069FF00F015F900F009F947F6FF7000F039
:1013C000F5F800F003F910BD70B5002600240025E3
:1013D00000F08AF806463A48B6FBF0F4394800882F
:1013E000A0423DD037490C8040F2B27510E028464B
:1013F000FFF755FC40B1B4F5B77F02D3A4F5B7743D
:1014000004E0681C85B206E0A4F26D14681C85B285
:10141000B4F5B67FEBD800BF2B480580002516E059
:1014200029480088FFF73BFC30B1012D04D11D2C69
:1014300001D31D3C09E00CE02448405DA04203D8E4
:101440002248405D241A00E003E0681C85B21C2C91
:10145000E6D200BF681C1E490870601C1D49087058
:101460001748B6FBF0F100FB11644FF46160B4FB68
:10147000F0F0194908704FF46160B4FBF0F100FB23
:1014800011403C21B0FBF1F0144908704FF4616049
:10149000B4FBF0F100FB11403C21B0FBF1F201FB89
:1014A00012000F4908700B48027809480178064875
:1014B000008800F035F80B490870002070BD00006E
:1014C00080510100260000201E000020D0290008C5
:1014D0002000002021000020220000202300002006
:1014E0002400002025000020002103480188001F5F
:1014F000008841EA004070471C2800400146002057
:10150000064A12880A40D0B2044A121F12880A40C2
:1015100012B108B1012000E000207047042800400B
:10152000F0B503460C461546642093FBF0F0C6B2B6
:10153000642093FBF0F700FB1730C1B2132E02DDDD
:1015400001F16400C1B20846CF1701EB977701EBB8
:10155000A707BAB2072092FBF0F700FB172082B270
:101560005719601EDFF82CC01CF80000384482B206
:10157000CF1701EB9777BF10A1EB87071FB9032C9B
:1015800001DA501E82B2072092FBF0F700FB172011
:10159000C0B2F0BDC429000810B50120FFF7AEFFAE
:1015A0000120FFF7AFFE00F011F810BD00B50246B4
:1015B000FFF7D0FEC2F3034003490880091D0A80EB
:1015C000FFF7D2FE00BD00000828004000BF03481E
:1015D000008800F020000028F9D07047042800405F
:1015E000074800884FF6F77108400549088000BF9A
:1015F0000348008800F008000028F9D07047000078
:101600000428004010B504464FF488711948FFF7CC
:1016100020F94FF402711748FFF71DF9204600F03A
:10162000ACFA18211348FFF714F94FF44071114830
:10163000FFF711F9204600F0A0FA4FF402710D48AF
:10164000FFF707F94FF488710A48FFF704F92046BD
:1016500000F093FA4FF440710648FFF7FAF81821AA
:101660000448FFF7F8F8204600F087FA00F038F950
:1016700010BD0000000C014010B504464FF440714D
:101680001948FFF7E6F818211748FFF7E4F8204655
:1016900000F073FA4FF402711348FFF7DAF84FF4D1
:1016A00088711148FFF7D7F8204600F066FA182134
:1016B0000D48FFF7CEF84FF440710B48FFF7CBF819
:1016C000204600F05AFA4FF488710748FFF7C1F836
:1016D0004FF402710448FFF7BEF8204600F04DFABF
:1016E00000F0FEF810BD0000000C014010B50446EB
:1016F0004FF444713248FFF7ACF808213048FFF747
:10170000AAF8204600F039FA4FF488712C48FFF708
:10171000A0F84FF402712A48FFF79DF8204600F028
:101720002CFA4FF48C712648FFF793F84FF40071B0
:101730002348FFF790F8204600F01FFA18212048B0
:10174000FFF787F84FF440711D48FFF784F82046F3
:1017500000F013FA4FF406711948FFF77AF84FF4C6
:1017600080711748FFF777F8204600F006FA4FF42B
:1017700002711348FFF76DF84FF488711048FFF7B6
:101780006AF8204600F0F9F94FF442710C48FFF76F
:1017900060F810210A48FFF75EF8204600F0EDF9E6
:1017A0004FF440710648FFF754F818210448FFF73A
:1017B00052F8204600F0E1F900F092F810BD000068
:1017C000000C014010B504464FF444713248FFF755
:1017D00040F808213048FFF73EF8204600F0CDF9E8
:1017E0004FF440712C48FFF734F818212A48FFF7CE
:1017F00032F8204600F0C1F94FF442712648FFF755
:1018000028F810212448FFF726F8204600F0B5F903
:101810004FF402712048FFF71CF84FF488711E48FE
:10182000FFF719F8204600F0A8F94FF406711A489E
:10183000FFF70FF84FF480711748FFF70CF82046B8
:1018400000F09BF918211448FFF703F84FF440719A
:101850001148FFF700F8204600F08FF94FF48C7123
:101860000D48FEF7F6FF4FF400710B48FEF7F3FF4B
:10187000204600F082F94FF488710748FEF7E9FF2F
:101880004FF402710448FEF7E6FF204600F075F9B8
:1018900000F026F810BD0000000C014008B5012141
:1018A0001C20FFF769FB01210846FFF765FB1020AC
:1018B0008DF803004FF44670ADF8000003208DF85A
:1018C000020069460448FEF7E7FE01210348FEF7DF
:1018D0006FFF00F005F808BD000C01400004300067
:1018E00010B54FF446710248FEF7B3FF10BD00007B
:1018F000000C0140704710B500F002F810BD000068
:101900000CB50020019000903348006840F480300E
:101910003149086000BF3048006800F40030009092
:101920000198401C0190009818B90198B0F5A06F7B
:10193000F1D12948006800F4003010B10120009076
:1019400001E0002000900098012843D1234800685E
:1019500040F01000214908600846006820F00300AC
:1019600008600846006840F0020008601A484068B5
:10197000194948600846406848600846406840F495
:10198000806048600846406820F47C104860084643
:10199000406840F4E81048600846006840F08070F5
:1019A000086000BF0C48006800F000700028F9D003
:1019B0000948406820F0030007494860084640682D
:1019C00040F00200486000BF0348406800F00C008F
:1019D0000828F9D10CBD0000001002400020024090
:1019E0007047000010B51348006840F0010011492D
:1019F000086008464068104908400E49486008469B
:101A000000680E4908400B4908600846006820F449
:101A1000802008600846406820F4FE0048604FF4CB
:101A20001F008860FFF767FF4FF0006004490860FF
:101A300010BD0000001002400000FFF8FFFFF6FE9E
:101A400008ED00E008B501210420FFF795FA0F200A
:101A5000ADF8000003208DF8020048208DF8030047
:101A600069460248FEF718FE08BD00000008014064
:101A700010B540F225511F4800F044F8002838D036
:101A80001C4800F069F8C4B221461BA0FEF7A2FB77
:101A90001A48008800F4004058BB1848008800F439
:101AA000804060B10A2C03D000201449088020E057
:101AB0001248008840F400401049088019E00D2CBD
:101AC00006D10E48008840F480400C49088010E0A0
:101AD0000A480088C0F30D0009490C5407480088E3
:101AE000401C0649088008460088C72801DD002000
:101AF000088010BD00380140256300001C00002054
:101B00002800002070B50246002400230025002094
:101B100040F66A16B14200D100BFC1F3421501F090
:101B20001F03012606FA03F3012D02D196893340E3
:101B300006E0022D02D1168A334001E0968A334036
:101B40000C12012606FA04F41688344013B10CB1C5
:101B5000012000E0002070BD01468888C0F3080025
:101B6000704700BFFEE730380A2801D201207047D5
:101B700000207047014600BF704700B5034603E0F0
:101B80004FF47A7000F006F8181EA3F101018BB231
:101B9000F6D100BD00EBC001C9004FF0E022516159
:101BA000002191610521116100BF4FF0E021096919
:101BB00001F480310029F8D004214FF0E0221161B6
:101BC0007047000000BF054A128802F04002002A58
:101BD000F9D0C2B2014B1B1D1A807047003801407A
:101BE00008B56420FFF7C9FFFFF7E6F9FFF792FB9E
:101BF000FFF728FFFEF7BCFCFEF75EFEFFF79CF93F
:101C0000FFF74CFE01250026FFF76CF98CE101215E
:101C1000C648FEF715FE60B9012602E00320FFF773
:101C2000F1FC0121C148FEF70BFE0028F6D0FFF7BA
:101C30000BF90221BD48FEF703FE60B9022602E05F
:101C40000320FFF719FD0221B848FEF7F9FD00282F
:101C5000F6D0FFF7F9F80421B448FEF7F1FD60B9BA
:101C6000032602E00320FFF741FD0421AF48FEF701
:101C7000E7FD0028F6D0FFF7E7F80821AB48FEF7AC
:101C8000DFFD68B9042602E00320FFF79BFD082171
:101C9000A648FEF7D5FD0028F6D0FFF7D5F801E0FD
:101CA000FFF71EFEFEF782FC0446012C02D101253F
:101CB000FFF7CAF8022C02D10225FFF7C5F8032C62
:101CC00002D10325FFF7C0F8012D01D1FFF70AF972
:101CD000022D9BD196A10020FFF7A4F86846FEF7DD
:101CE000FBFF97A10220FFF79DF89DF80000012857
:101CF00004D12D2230210220FFF74AF89DF801007F
:101D00000A2190FBF1F0303087B23A4638210220A8
:101D1000FFF73EF89DF801000A2190FBF1F201FB6C
:101D20001200303087B23A4640210220FFF730F8E7
:101D30002E2248210220FFF72BF89DF802000A21ED
:101D400090FBF1F0303087B23A4650210220FFF785
:101D50001FF89DF802000A2190FBF1F201FB12002E
:101D6000303087B23A4658210220FFF711F8FFF7CA
:101D70002BFB75A10420FFF755F8754800780A2160
:101D800090FBF1F0303087B23A4630210420FEF764
:101D9000FFFF6F4800780A2190FBF1F201FB12006F
:101DA000303087B23A4638210420FEF7F1FF2E2268
:101DB00040210420FEF7ECFF664800780A2190FBE2
:101DC000F1F0303087B23A4648210420FEF7E0FFB8
:101DD000604800780A2190FBF1F201FB12003030DC
:101DE00087B23A4650210420FEF7D2FF2E22582116
:101DF0000420FEF7CDFF584800780A2190FBF1F04F
:101E0000303087B23A4660210420FEF7C1FF5248C5
:101E100000780A2190FBF1F201FB1200303087B20A
:101E20003A4668210420FEF7B3FF4CA10620FEF7D6
:101E3000F9FF052E77D2DFE806F003182D475C0086
:101E4000532238210620FEF7A3FF5422402106200A
:101E5000FEF79EFF4F2248210620FEF799FF5022F1
:101E600011460620FEF794FF5DE04C223821062043
:101E7000FEF78EFF452240210620FEF789FF46220D
:101E800048210620FEF784FF542250210620FEF749
:101E90007FFF48E0522238210620FEF779FF4922D1
:101EA00040210620FEF774FF472248210620FEF756
:101EB0006FFF482250210620FEF76AFF5422582166
:101EC0000620FEF765FF2EE04C2238210620FEF7A3
:101ED0005FFF452240210620FEF75AFF4622482197
:101EE0000620FEF755FF542250210620FEF750FF32
:101EF00019E0522238210620FEF74AFF49224021EC
:101F00000620FEF745FF472248210620FEF740FF46
:101F1000482250210620FEF73BFF5422582106207C
:101F2000FEF736FF00BF00BF71E600000008014069
:101F30002020202047756F79756C756E00000000B9
:101F40002054656D703A00002054696D653A0000B8
:101F5000210000202200002024000020204D6F746A
:101F60006F723A0000000000000000000000000056
:101F700000000000000038FCFC3800000000000DEC
:101F80000D000000000E1E00001E0E0000000000EC
:101F90000000000020F8F820F8F82000020F0F02DF
:101FA0000F0F0200387C444747CC98000306041CFE
:101FB0001C07030030300080C06030000C060301B5
:101FC000000C0C0080D87CE4BCD84000070F080847
:101FD000070F080000101E0E0000000000000000A7
:101FE000000000000000F0F80C04000000000307EF
:101FF0000C0800000000040CF8F000000000080CC1
:102000000703000080A0E0C0C0E0A0800002030140
:1020100001030200008080E0E080800000000003F7
:102020000300000000000000000000000000101E7F
:102030000E00000080808080808080000000000012
:102040000000000000000000000000000000000C84
:102050000C00000000000080C06030000C0603018E
:1020600000000000F8FC04C424FCF800070F090875
:10207000080F0700001018FCFC0000000008080F03
:102080000F080800080C84C4643C18000E0F0908EF
:10209000080C0C00080C444444FCB800040C08086C
:1020A000080F0700C0E0B098FCFC800000000008AA
:1020B0000F0F08007C7C4444C4C48400040C08084E
:1020C000080F0700F0F84C4444C08000070F0808D0
:1020D000080F07000C0C0484C47C3C0000000F0FA8
:1020E00000000000B8FC444444FCB800070F080896
:1020F000080F0700387C444444FCF8000008080836
:102100000C07030000000030300000000000000653
:102110000600000000000030300000000000080E43
:10212000060000000080C0603018080000000103B5
:10213000060C0800404040404040400002020202BD
:10214000020202000008183060C0800000080C067F
:1021500003010000181C04C4E43C18000000000D3A
:102160000D000000F0F808C8C8F8F000070F080BD1
:102170000B0B0100E0F0988C98F0E0000F0F0000CE
:10218000000F0F0004FCFC4444FCB800080F0F08CB
:10219000080F0700F0F80C04040C180003070C08E3
:1021A000080C060004FCFC040CF8F000080F0F08F3
:1021B0000C07030004FCFC44E40C1C00080F0F088F
:1021C000080C0E0004FCFC44E40C1C00080F0F0873
:1021D00000000000F0F80C84848C980003070C08C1
:1021E00008070F00FCFC404040FCFC000F0F000003
:1021F000000F0F00000004FCFC0400000000080FAA
:102200000F08000000000004FCFC0400070F080891
:102210000F07000004FCFCC0F03C0C00080F0F008E
:10222000010F0E0004FCFC0400000000080F0F0862
:10223000080C0E00FCFC387038FCFC000F0F00008E
:10224000000F0F00FCFC3870E0FCFC000F0F0000DA
:10225000000F0F00F0F80C040CF8F00003070C0856
:102260000C07030004FCFC44447C3800080F0F08F2
:1022700000000000F8FC040404FCF800070F080E3E
:102280003C3F270004FCFC44C4FC3800080F0F004E
:10229000000F0F00183C6444C49C1800060E080888
:1022A000080F0700001C0CFCFC0C1C000000080FB1
:1022B0000F080000FCFC000000FCFC00070F0808F1
:1022C000080F0700FCFC000000FCFC000103060CEA
:1022D00006030100FCFC008000FCFC00030F0E0361
:1022E0000E0F03000C3CF0C0F03C0C000C0F030080
:1022F000030F0C00003C7CC0C07C3C000000080FB9
:102300000F0800001C0C84C4643C1C000E0F09085C
:10231000080C0E000000FCFC0404000000000F0F7D
:10232000080800003870E0C08000000000000001D4
:1023300003070E0000000404FCFC00000000080875
:102340000F0F0000080C0603060C08000000000038
:1023500000000000000000000000000020202020FD
:1023600020202020000003070400000000000000DF
:102370000000000000A0A0A0E0C00000070F0808B7
:10238000070F080004FCFC2060C08000080F07084D
:10239000080F0700C0E0202020604000070F080859
:1023A000080C040080C06024FCFC0000070F080833
:1023B000070F0800C0E0A0A0A0E0C000070F0808B9
:1023C000080C040040F8FC440C180000080F0F082B
:1023D00000000000C0E02020C0E02000276F484837
:1023E0007F3F000004FCFC4020E0C000080F0F000D
:1023F000000F0F00000020ECEC0000000000080FB0
:102400000F0800000000000020ECEC0000307040DD
:10241000407F3F0004FCFC80C0602000080F0F01DB
:10242000030E0C00000004FCFC0000000000080F7C
:102430000F080000E0E060C060E0C0000F0F000F78
:10244000000F0F0020E0C02020E0C000000F0F00B0
:10245000000F0F00C0E0202020E0C000070F080898
:10246000080F070020E0C02020E0C000407F7F4828
:10247000080F0700C0E02020C0E02000070F084838
:102480007F7F400020E0C0602060C000080F0F0880
:102490000000000040E0A02020604000040C09097A
:1024A0000B0E04002020F8FC202000000000070F85
:1024B000080C0400E0E00000E0E00000070F08085E
:1024C000070F080000E0E00000E0E0000003070C58
:1024D0000C070300E0E0000000E0E000070F0C073D
:1024E0000C0F07002060C080C0602000080C0703AC
:1024F000070C0800E0E0000000E0E000474F48481B
:10250000683F1F00606020A0E06020000C0E0B09F7
:10251000080C0C00004040F8BC0404000000000758
:102520000F080800000000BCBC0000000000000F05
:102530000F000000000404BCF84040000008080F31
:1025400007000000080C040C080C04000000000048
:102550000000000080C0603060C0800007070404F5
:10256000040707000404F494959694F404FE0242D0
:10257000B20E000010121252927A161200FF0810CA
:1025800020110E00000212620202FE00021262021C
:1025900002FF020000040C4281403F00040C428113
:1025A000403F000000203827A07020900C030C1042
:1025B00020602000002262231212003F4444424364
:1025C000407000000000000000000000000000005B
:1025D00000000000000000000000000000000000FB
:1025E00000000000000000000000000000000000EB
:1025F00000000000000000000000000000000000DB
:1026000000000000000000000000000000000000CA
:1026100000000000000000000000000000000000BA
:1026200000000000000000000000000000000000AA
:10263000000000000000000000000000000000009A
:10264000000000000000000000000000000000008A
:102650000000000000C0E0E0F07038381C1C0C0ED8
:102660000E0E060607070707030303030307070702
:102670000706060E0E0E0E1C1C1C387870F0E0C00B
:1026800080000000000000000000000000000000CA
:10269000000000000000000000000000000000003A
:1026A000000000000000000000000000000000002A
:1026B000000000000000000000000000000000001A
:1026C000000000000080E0E0E0707030303030301A
:1026D000303070FEFFFF0301000E1F1F1F000000BF
:1026E00000000000000000000000000000000000EA
:1026F0000000000000000000000000000000C3FF18
:10270000FFFEC0C0C0C0C0C0C0C0C0C0C0C0C0C04C
:10271000C0C0C0C0C0C0C0C0C0C080808080808039
:1027200000000000000000000000000000000000A9
:102730000000000000000000000000000000000099
:102740000000000000010707063E7E7E6EE6E6E719
:10275000E7676773777F7F7E3C3838383070F0F0FA
:10276000F070606000000000000000000000000049
:10277000000000000000000080C0C0C4E66767736E
:102780007171313131393919181818181818383849
:10279000383030707071F1E1E1E1C1C181030303B0
:1027A00003070707060E0E0E1C1C1E0E0606060764
:1027B00007070707070707060E0E1E1C7CF8F0C068
:1027C0000000000000000000000000000000000009
:1027D000000000000000000000000000F8FFFF0FF4
:1027E00001000000000000000000000000000000E8
:1027F000000000E0F8FCFF0F0703010100000000EB
:10280000F0F0F0F0F0400000000000000000E0F008
:10281000F0F0F0F00000000000010303070F1FFEBE
:10282000FCF00000000000000000000000000000BC
:1028300000000000000000000000C0E0FC7F3F0737
:102840000000000000000000000000000000000088
:10285000000000000000000000000000030F1F3E09
:1028600078F0E0C0C0808080000000000000000020
:1028700000000001070F1F3C3800000000000000AE
:102880000000010100000000000000000000000046
:102890000101010000000000E0F07070383C1F0FE3
:1028A00007010000000000000000808080C0C0C060
:1028B000E0E0707078381C1E0F0F07030100000065
:1028C0000000000000000000000000000000000008
:1028D00000000000000000000000000000000000F8
:1028E00000000001018383C3C7E7F777767E3E3E91
:1028F0003C1C9CCCCC0C1C1C1C1C1C1C1C1C1C182C
:102900001818181818181818181818181818181847
:10291000181C1C1C1C1C1C1C0C0C0C0C0C0ECECEF5
:10292000CE8E1E1E1E3F3F377373E3E3C3C1C180CB
:102930008000000000000000000000000000000017
:102940000000000000000000000000000000000087
:102950000000000000000000C0C0E0E0F078383C5B
:102960001C1E0E0F070303010100000080C0F07859
:102970003E1F0703010000000000000000000000EF
:102980000000000000000000000000000000000047
:102990000000000000000000000000000000000136
:1029A000030F1F7EF8F0C0000000000000010303C9
:1029B00007070F0E1E3C383870E0E0C0C0800000F2
:1029C00000000000000303060104060205000305E1
:1029D0001F1C1F1E1F1E1F1F1E1F1E1F040000087E
:1029E00000000000000000020001000010000000D4
:1029F000102A00080000002028000000280100081C
:102A0000382A000828000020280700004401000898
:102A10000000000001020304010203040607080984
:102A20000204060800000000000000000000000092
:082A300000000000000000009E
:04000005080000ED02
:00000001FF
