:020000040800F2
:100000003007002091010008C3060008BB06000865
:10001000BF060008BD040008170F0008000000001C
:10002000000000000000000000000000A90C000813
:10003000C104000800000000C5060008950D000876
:10004000AB010008AB010008AB01000891090008F2
:10005000AB010008AB010008AB010008AB010008D0
:10006000AB010008AB010008AB010008AB010008C0
:10007000AB010008AB010008AB010008AB010008B0
:10008000AB010008AB010008AB010008AB010008A0
:10009000AB010008AB010008AB010008AB01000890
:1000A000AB010008AB010008AB010008AB01000880
:1000B000AB010008AB010008AB010008AB01000870
:1000C000AB010008AB010008AB010008AB01000860
:1000D000AB010008250E0008AB010008AB010008C9
:1000E000AB01000849090008AB01000800F002F864
:1000F00000F03FF80AA090E8000C82448344AAF183
:100100000107DA4501D100F034F8AFF2090EBAE880
:100110000F0013F0010F18BFFB1A43F0010318473B
:10012000E80E0000080F0000103A24BF78C878C11C
:10013000FAD8520724BF30C830C144BF04680C60ED
:10014000704700000023002400250026103A28BF35
:1001500078C1FBD8520728BF30C148BF0B60704739
:10016000632900F05781002070471FB51FBD10B5EF
:1001700010BD00F071F91146FFF7F7FF00F00AFF1C
:1001800000F08FF903B4FFF7F2FF03BC00F0CCFEE0
:100190000948804709480047FEE7FEE7FEE7FEE71B
:1001A000FEE7FEE7FEE7FEE7FEE7FEE70448054957
:1001B000054A064B70470000990D0008ED00000845
:1001C00030010020300700203003002030030020E1
:1001D000704700000FB4044910B503AA029800F05C
:1001E00025F910BC5DF814FB0000002070B50C462A
:1001F0000546012A05D02878800600D5EA69002343
:1002000002E0012305E05B1C934202D2E05C00287F
:10021000F9D1A869E618C01AA861286A18442862AA
:100220002846AFF3008004E0D5E9012114F8010B62
:100230009047B442F8D32846AFF3008070BD000069
:100240002DE9F05F894604464FF0000ADFF874B1EB
:10025000FB44C0F820A02046E1688847002874D0FD
:10026000252806D0D4E901219047206A401C20624D
:10027000F1E700265F462046E168884720280546CA
:1002800007DB312D05D2781910F8200C08B1064390
:10029000F1E7B00701D526F00406C4F81CA000273A
:1002A000C4F818A02A2D09D0284600F036FE38B32D
:1002B00004EB8708303DC8F8185019E059F8041BC2
:1002C000204604EB87029161E1688847012F0546CB
:1002D00018D1E069002820DA26F020061DE0D8F8C1
:1002E000180000EB800005EB40003038C8F818001B
:1002F0002046E1688847054600F00FFE0028EED151
:10030000012F0AD02E2D08D12046E16888477F1C96
:100310000546022F46F02006C4DBA069002803DA58
:10032000404246F00106A061F00701D026F0100619
:100330006C2D0BD0682D09D04C2D39D06A2D35D0BD
:10034000742D35D07A2D33D016E038E0E1682F4691
:1003500020468847B842054609D16C2F26D04FF475
:100360008060E168064320468847054604E06C2F1C
:100370001AD04FF4807006430DB3A5F1410019283F
:1003800002D8203546F400664A46294620462660B3
:100390004E46FFF7E5FE80B101280BD0F61D26F092
:1003A000070000F1080956E74020E4E78020D8E77D
:1003B0000020D6E706F104094DE7284652E7206AF7
:1003C000BDE8F09FA00D0000704770477047704770
:1003D00001694A1C02610878704700B58FB0CDE909
:1003E00001310021059105497944CDE903101146F9
:1003F0006846FFF725FF0FB000BD0000E5FFFFFFD7
:1004000010B5436913B1AFF3008001E0FFF7EEFED2
:10041000012010BD127800F124010A7000224A70F8
:100420000122EDE711684FF0FF32E9E7074B70B5A5
:100430000D467B44FFF7D1FF0446284600F008F83C
:1004400010B14FF0FF3070BD204670BD430B00006F
:10045000007B00F080007047754600F02BF8AE4638
:1004600005006946534620F00700854618B020B5C0
:10047000FFF79CFEBDE820404FF000064FF000075C
:100480004FF000084FF0000B21F00701AC46ACE83C
:10049000C009ACE8C009ACE8C009ACE8C0098D46A9
:1004A000704710B50446AFF300802046BDE8104009
:1004B000FFF768BE00487047D000002000BFFEE78D
:1004C000704700000549096821F01001034A1160D6
:1004D0001146096801431160704700000020024086
:1004E00001460020034A106800F0380008431060FD
:1004F00070470000002002402DE9F041024600252F
:100500000026002000230024002791F803C00CF0EF
:100510000F0591F803C00CF0100CBCF1000F03D0D4
:1005200091F802C04CEA050591F800C0BCF1000F3B
:1005300031D0146800202BE04FF0010C0CFA00F3CE
:10054000B1F800C00CEA03069E4220D183004FF0B0
:100550000F0C0CFA03F7BC4305FA03FC4CEA040445
:1005600091F803C0BCF1280F06D14FF0010C0CFA32
:1005700000FCC2F814C00AE091F803C0BCF1480FB7
:1005800005D14FF0010C0CFA00FCC2F810C0401C61
:100590000828D1D31460B1F800C0BCF1FF0F34DDDE
:1005A000546800202EE000F1080C4FF0010808FA12
:1005B0000CF3B1F800C00CEA03069E4221D183007F
:1005C0004FF00F0C0CFA03F7BC4305FA03FC4CEA9E
:1005D000040491F803C0BCF1280F05D100F1080C08
:1005E00008FA0CF8C2F8148091F803C0BCF1480F67
:1005F00007D100F1080C4FF0010808FA0CF8C2F816
:100600001080401C0828CED35460BDE8F081000063
:10061000F0B50A46002300240021002500F0004622
:10062000B6F1004F02D11D4EF16901E01B4E716819
:10063000C0F3034583B200F44016B6F5401F08D15D
:1006400021F07061154E766826F07066134F7E605B
:1006500012E000F48016B6F5801F06D1032606FAD4
:1006600005F4A14341F0706106E0460D360103FA3E
:1006700006F6B14341F0706122B1460D360103FA2E
:1006800006F6314300F00046B6F1004F02D1034EAA
:10069000F16101E0014E7160F0BD00000000014019
:1006A0000246002093680B400BB1012000E00020BF
:1006B0007047416170470161704700BFFEE700BFAE
:1006C000FEE770477047000029B1064A926902436D
:1006D000044B9A6104E0034A92698243014B9A6198
:1006E000704700000010024010B500F035F84FF4DC
:1006F000803000F089F800F0E5F80446012C24D1A0
:100700004FF4E011000400F0C3F8002000F070F88E
:10071000A00200F09FF8002000F0A8F80220FFF7E8
:10072000DFFE1020FFF7CEFE012000F0ABF800BF87
:10073000392000F037F80028FAD0022000F0B6F88F
:1007400000BF00F04DF80828FBD1012144F27C00E5
:10075000FFF7BAFF10BD00000F48006840F001002D
:100760000D490860084640680C4908400A4948603D
:10077000084600680A4908400749086008460068BA
:1007800020F4802008600846406820F4FE0048609D
:100790004FF41F0088607047001002400000FFF80F
:1007A000FFFFF6FE10B501460022002300204A118B
:1007B000012A02D1094C236806E0022A02D1074C23
:1007C000236A01E0054C636A01F01F020124944092
:1007D0001C400CB1012000E0002010BD00100240C0
:1007E0000248406800F00C00704700000010024012
:1007F00001460020034A506820F0F0000843506092
:1008000070470000001002401149096821F480314E
:100810000F4A11601146096821F480211160B0F57A
:10082000803F03D0B0F5802F0ED106E0084909685B
:1008300041F48031064A116007E00549096841F436
:10084000A021034A116000E000BF00BF7047000014
:100850000010024001460020034A506820F4E06086
:10086000084350607047000000100240014600201D
:10087000034A506820F4605040EAC100506070475D
:100880000010024001490866704700000000424223
:1008900002460020044B586820F47C1042EA010311
:1008A0001843014B58607047001002400146002079
:1008B000034A506820F0030008435060704700006E
:1008C0000010024038B5002000900024002500BF31
:1008D0003120FFF767FF05460098401C0090009804
:1008E000B0F5A06F01D0002DF2D03120FFF75AFFF4
:1008F00008B1012400E00024204638BD08B50121DC
:100900001C20FFF7E1FE01210846FFF7DDFE102065
:100910008DF803004FF4C040ADF8000003208DF8BF
:10092000020069460648FFF7E7FD01210548FFF789
:100930006FFE4FF4C0410248FFF7BBFE08BD000048
:10094000000801400004300010B5022000F00EF84D
:10095000022000F003F800F025F810BD02490988D4
:100960008143014A1180704704280040014600205D
:10097000064A12880A40D0B2044A121F12880A405E
:1009800012B108B1012000E00020704704280040A7
:1009900010B50120FFF7EAFF0120FFF7DFFF00F0AD
:1009A00001F810BD00BF0348008800F020000028B7
:1009B000F9D070470428004010B504464FF4887100
:1009C0001948FFF776FE4FF402711748FFF773FEE0
:1009D000204600F0ACFA18211348FFF76AFE4FF4E6
:1009E00040711148FFF767FE204600F0A0FA4FF46F
:1009F00002710D48FFF75DFE4FF488710A48FFF75A
:100A00005AFE204600F093FA4FF440710648FFF773
:100A100050FE18210448FFF74EFE204600F087FAEA
:100A200000F038F910BD0000000C014010B504467C
:100A30004FF440711948FFF73CFE18211748FFF7A3
:100A40003AFE204600F073FA4FF402711348FFF7A4
:100A500030FE4FF488711148FFF72DFE204600F05C
:100A600066FA18210D48FFF724FE4FF440710B4839
:100A7000FFF721FE204600F05AFA4FF4887107482C
:100A8000FFF717FE4FF402710448FFF714FE2046EB
:100A900000F04DFA00F0FEF810BD0000000C01401F
:100AA00010B504464FF444713248FFF702FE0821A6
:100AB0003048FFF700FE204600F039FA4FF4887105
:100AC0002C48FFF7F6FD4FF402712A48FFF7F3FDBB
:100AD000204600F02CFA4FF48C712648FFF7E9FD10
:100AE0004FF400712348FFF7E6FD204600F01FFA9F
:100AF00018212048FFF7DDFD4FF440711D48FFF736
:100B0000DAFD204600F013FA4FF406711948FFF79A
:100B1000D0FD4FF480711748FFF7CDFD204600F05F
:100B200006FA4FF402711348FFF7C3FD4FF48871C2
:100B30001048FFF7C0FD204600F0F9F94FF442716C
:100B40000C48FFF7B6FD10210A48FFF7B4FD204618
:100B500000F0EDF94FF440710648FFF7AAFD1821A7
:100B60000448FFF7A8FD204600F0E1F900F092F8F4
:100B700010BD0000000C014010B504464FF4447154
:100B80003248FFF796FD08213048FFF794FD2046D4
:100B900000F0CDF94FF440712C48FFF78AFD182181
:100BA0002A48FFF788FD204600F0C1F94FF4427152
:100BB0002648FFF77EFD10212448FFF77CFD2046E4
:100BC00000F0B5F94FF402712048FFF772FD4FF4C1
:100BD00088711E48FFF76FFD204600F0A8F94FF41A
:100BE00006711A48FFF765FD4FF480711748FFF74B
:100BF00062FD204600F09BF918211448FFF759FDCB
:100C00004FF440711148FFF756FD204600F08FF970
:100C10004FF48C710D48FFF74CFD4FF400710B48F9
:100C2000FFF749FD204600F082F94FF4887107482C
:100C3000FFF73FFD4FF402710448FFF73CFD2046EB
:100C400000F075F900F026F810BD0000000C01401E
:100C500008B501211C20FFF737FD01210846FFF7E9
:100C600033FD10208DF803004FF44670ADF80000FE
:100C700003208DF8020069460448FFF73DFC01217E
:100C80000348FFF7C5FC00F005F808BD000C014063
:100C90000004300010B54FF446710248FFF709FD1B
:100CA00010BD0000000C0140704710B500F002F8C4
:100CB00010BD00000CB50020019000903348006882
:100CC00040F480303149086000BF3048006800F4CB
:100CD000003000900198401C0190009818B90198CC
:100CE000B0F5A06FF1D12948006800F4003010B1D0
:100CF0000120009001E0002000900098012843D1DD
:100D00002348006840F01000214908600846006848
:100D100020F0030008600846006840F00200086008
:100D20001A484068194948600846406848600846C3
:100D3000406840F4806048600846406820F47C10B9
:100D400048600846406840F4E8104860084600687B
:100D500040F08070086000BF0C48006800F0007030
:100D60000028F9D00948406820F00300074948608E
:100D70000846406840F00200486000BF03484068F1
:100D800000F00C000828F9D10CBD00000010024052
:100D9000002002407047000010B51348006840F082
:100DA00001001149086008464068104908400E4992
:100DB0004860084600680E4908400B49086008462C
:100DC000006820F4802008600846406820F4FE0097
:100DD00048604FF41F008860FFF767FF4FF0006026
:100DE0000449086010BD0000001002400000FFF838
:100DF000FFFFF6FE08ED00E008B501210420FFF733
:100E000063FC0F20ADF8000003208DF8020048209D
:100E10008DF8030069460248FFF76EFB08BD00002D
:100E20000008014010B540F225511F4800F044F879
:100E3000002838D01C4800F069F8C4B221461BA035
:100E4000FFF7C8F91A48008800F4004058BB18485A
:100E5000008800F4804060B10A2C03D000201449BF
:100E6000088020E01248008840F4004010490880C3
:100E700019E00D2C06D10E48008840F480400C4942
:100E8000088010E00A480088C0F30D0009490C549E
:100E900007480088401C0649088008460088C72883
:100EA00001DD0020088010BD0038014025630000EE
:100EB000040000200800002070B502460024002332
:100EC0000025002040F66A16B14200D100BFC1F3F0
:100ED000421501F01F03012606FA03F3012D02D18A
:100EE0009689334006E0022D02D1168A334001E094
:100EF000968A33400C12012606FA04F41688344010
:100F000013B10CB1012000E0002070BD01468888BB
:100F1000C0F30800704700BFFEE730380A2801D24E
:100F20000120704700207047014600BF704700B5A0
:100F3000034603E04FF47A7000F006F8181EA3F1A0
:100F400001018BB2F6D100BD00EBC001C9004FF02A
:100F5000E0225161002191610521116100BF4FF034
:100F6000E021096901F480310029F8D004214FF013
:100F7000E02211617047000000BF054A128802F0AC
:100F80004002002AF9D0C2B2014B1B1D1A807047E3
:100F900000380140FFF7A8FBFFF72EFFFFF7AEFC7C
:100FA000FFF756FE22E001211148FFF779FB10B947
:100FB0000320FFF701FD02210D48FFF771FB10B977
:100FC0000320FFF733FD04210948FFF769FB10B93F
:100FD0000320FFF765FD08210548FFF761FB18B9FD
:100FE0000320FFF7C9FD01E0FFF754FEDBE7000037
:100FF000000801400400000800000000000000029A
:10100000000100001000000028100008000000206F
:101010000800000028010008301000080800002027
:101020002807000044010008000000000000000044
:04000005080000ED02
:00000001FF
