:020000040800F2
:100000009006002089010008E50D0008B1080008ED
:10001000E10D0008AD0500088F1800080000000081
:100020000000000000000000000000007D16000835
:100030005107000800000000AD0F00086917000814
:10004000A3010008A3010008A3010008111600087D
:10005000A3010008A3010008A3010008A3010008F0
:10006000A3010008A3010008A3010008A3010008E0
:10007000A3010008A3010008A3010008A3010008D0
:10008000A3010008A3010008A3010008A3010008C0
:10009000A3010008A3010008A3010008A3010008B0
:1000A000A3010008A3010008A3010008A3010008A0
:1000B000A3010008A3010008A3010008A301000890
:1000C000A3010008A3010008A3010008A301000880
:1000D000A3010008A3010008A3010008F917000804
:1000E000A301000869130008A301000800F002F84A
:1000F00000F03AF80AA090E8000C82448344AAF188
:100100000107DA4501D100F02FF8AFF2090EBAE885
:100110000F0013F0010F18BFFB1A43F0010318473B
:10012000D8250000F8250000103A24BF78C878C10F
:10013000FAD8520724BF30C830C144BF04680C60ED
:10014000704700000023002400250026103A28BF35
:1001500078C1FBD8520728BF30C148BF0B60704739
:100160001FB51FBD10B510BD00F065F81146FFF7B3
:10017000F7FF01F0B5FB00F083F803B4FFF7F2FFDF
:1001800003BC01F086FB000009488047094800478E
:10019000FEE7FEE7FEE7FEE7FEE7FEE7FEE7FEE737
:1001A000FEE7FEE704480549054A064B7047000094
:1001B0006D170008ED000008900000209006002058
:1001C0009002002090020020704710B5203AC0F045
:1001D0000B80B1E81850203AA0E81850B1E8185048
:1001E000A0E81850BFF4F5AF5FEA027C24BFB1E885
:1001F0001850A0E8185044BF18C918C0BDE81040F6
:100200005FEA827C24BF51F8043B40F8043B08BFFE
:100210007047D20728BF31F8023B48BF11F8012BC5
:1002200028BF20F8023B48BF00F8012B70477047F9
:10023000704770477047754600F02CF8AE460500D1
:100240006946534620F00700854618B020B5FFF7F1
:10025000A9FFBDE820404FF000064FF000074FF027
:1002600000084FF0000B21F00701AC46ACE8C009D4
:10027000ACE8C009ACE8C009ACE8C0098D467047DD
:1002800010B50446AFF300802046BDE81040FFF7EC
:1002900074BF0000004870472C00002021B1826824
:1002A00042F00102826003E0826822F00102826073
:1002B0007047000000B585B000F088F800F05AF8EB
:1002C0000020009001208DF805008DF804004FF407
:1002D000602002900020039004208DF810006946F1
:1002E0001D4800F0A5F80323012204211A4800F05C
:1002F000C7F8032302220521174800F0C1F80323A1
:100300001A460621144800F0BBF8032304220721F3
:10031000114800F0B5F801210F4800F01FF8012145
:100320000D48FFF7BBFF0C4800F006F900BF0A4874
:1003300000F074F80028FAD1074800F00DF900BF6A
:10034000054800F061F80028FAD10121024800F0C8
:10035000F8F805B000BD00000024014021B182681A
:1003600042F48072826003E0826822F480728260CC
:100370007047000000B58BB0114800F025F9114816
:10038000009011480190002002900420039000206A
:100390000490802005904000069080000790202067
:1003A00008900002099000200A906946044800F075
:1003B000B1F90121024800F0FBF80BB000BD0000CC
:1003C000080002404C2401402400002008B501210F
:1003D0003C2000F00DFE0121480200F009FE012141
:1003E000084600F0E5FDF020ADF8000003208DF890
:1003F000020000208DF803006946024800F0C4F9AD
:1004000008BD000000080140014600208A6802F093
:1004100004020AB1012000E00020704701460020DC
:100420008A6802F008020AB1012000E0002070474B
:1004300030B502460020002350680F4C20400D7953
:100440000C6844EA05242043506090680B4C20401F
:10045000D1E902542C434D7944EA4504204390608D
:10046000D06A20F470000C7C641EE4B2234340EA9E
:100470000350D06230BD0000FFFEF0FFFDF7F1FF3A
:10048000F0B504460D4600200021092D11DDE0687D
:10049000A5F10A0606EB4607072606FA07F1884388
:1004A000A5F10A0606EB460603FA06F10843E060EA
:1004B0000CE0206905EB4507072606FA07F188439B
:1004C00005EB450603FA06F108432061072A0FDA17
:1004D000606B561E06EB86071F2606FA07F1884357
:1004E000561E06EB860605FA06F10843606322E015
:1004F0000D2A0FDA206BD61F06EB86071F2606FA99
:1005000007F18843D61F06EB860605FA06F1084375
:10051000206310E0E06AA2F10D0606EB86071F26B5
:1005200006FA07F18843A2F10D0606EB860605FAE6
:1005300006F10843E062F0BD816841F00801816086
:10054000704721B1826842F4A002826003E08268B1
:1005500022F4A00282607047816841F0040181604A
:10056000704710B5012000F053FD002000F050FD51
:1005700010BD000008B5014600200090034800901F
:100580000098084400900098008808BD006C004066
:1005900008B500220092044A0092009A0244009298
:1005A000009A116008BD0000006C004000BFFEE72B
:1005B00021B1026842F00102026004E002684FF6D5
:1005C000FE731A400260704701684FF6FE721140D8
:1005D00001600021016041608160C1604B49884237
:1005E00008D14A490839496841F00F01474A083A99
:1005F00051608AE045491431884208D1434908399D
:10060000496841F0F001414A083A51607DE03F49B4
:100610002831884208D13D490839496841F4706160
:100620003A4A083A516070E038493C31884208D172
:1006300036490839496841F47041344A083A5160F2
:1006400063E032495031884208D13049083949685D
:1006500041F470212D4A083A516056E02B4964312B
:10066000884208D129490839496841F47001274A6C
:10067000083A516049E025497831884208D1234938
:100680000839496841F07061204A083A51603CE0FD
:100690001F49884206D1011F096841F00F01021F5E
:1006A000116032E01A491431884208D11849091FF3
:1006B000096841F0F001164A121F116025E0144943
:1006C0002831884208D11249091F096841F4706134
:1006D0000F4A121F116018E00D493C31884208D1C1
:1006E0000B49091F096841F47041094A121F116042
:1006F0000BE007495031884207D10549091F0968B5
:1007000041F47021024A121F116070470800024034
:100710000804024010B50022026847F6F0739A43BD
:100720000C6A8B6823430C6923434C6923438C690F
:100730002343CC6923434C6A23438C6A23431A43E3
:100740000260CB6843600B6883604B68C36010BD78
:10075000704700000549096821F01001034A116043
:1007600011460968014311607047000000200240F3
:1007700001460020034A106800F03800084310606A
:1007800070470000002002402DE9F041024600259C
:100790000026002000230024002791F803C00CF05D
:1007A0000F0591F803C00CF0100CBCF1000F03D042
:1007B00091F802C04CEA050591F800C0BCF1000FA9
:1007C00031D0146800202BE04FF0010C0CFA00F33C
:1007D000B1F800C00CEA03069E4220D183004FF01E
:1007E0000F0C0CFA03F7BC4305FA03FC4CEA0404B3
:1007F00091F803C0BCF1280F06D14FF0010C0CFAA0
:1008000000FCC2F814C00AE091F803C0BCF1480F24
:1008100005D14FF0010C0CFA00FCC2F810C0401CCE
:100820000828D1D31460B1F800C0BCF1FF0F34DD4B
:10083000546800202EE000F1080C4FF0010808FA7F
:100840000CF3B1F800C00CEA03069E4221D18300EC
:100850004FF00F0C0CFA03F7BC4305FA03FC4CEA0B
:10086000040491F803C0BCF1280F05D100F1080C75
:1008700008FA0CF8C2F8148091F803C0BCF1480FD4
:1008800007D100F1080C4FF0010808FA0CF8C2F883
:100890001080401C0828CED35460BDE8F081024689
:1008A000002093680B400BB1012000E0002070474E
:1008B00000BFFEE721B1028842F48062028004E0BA
:1008C00002884FF6FF331A400280704770B5024627
:1008D0000024002500230020958A138B1B0445EA81
:1008E000030626F07F4404EA01068E4201D101206E
:1008F00000E0002070BD21B1028842F001020280B8
:1009000004E002884FF6FE731A4002807047000030
:100910001FB500F021F80020ADF804004BF6FF7081
:10092000ADF80600C020ADF808004FF48060ADF8C7
:100930000A000001ADF80C00054800906946054822
:1009400000F05AF801210348FFF7D5FF1FBD000052
:10095000400D03000054004008B501211C2000F0A8
:1009600047FB0121480500F033FBC020ADF8000033
:100970001C208DF8030003208DF802006946024810
:10098000FFF702FF08BD0000000C014021B1028802
:1009900042F48072028004E002884FF6FF631A403E
:1009A0000280704721B1028842F40072028004E0A4
:1009B00002884FF6FF531A40028070470CB502467A
:1009C000002000230193009300920B0F019321F06C
:1009D0007F41019B1BB1009B1433009303E0090C82
:1009E000009B18330093009B1B680B400BB1012048
:1009F00000E000200CBD00002DE9F04385B0044666
:100A00000D460026B1460427DFF8CC80A6884FF6B5
:100A1000C0700640684600F069FBDDF808802F488A
:100A2000B8FBF0F01FFA80F946EA0906A680208894
:100A30004FF6FE7108402080002629492868884228
:100A40000CD828684000B8FBF0F087B2042F00DA19
:100A500004273E4309F10100208427E0E8884BF693
:100A6000FF71884206D1286800EB4000B8FBF0F027
:100A700087B209E0286800EBC00101EB0010B8FB69
:100A8000F0F087B247F48047C7F30B0008B947F08E
:100A9000010747F4004006434FF4967009FB00F04D
:100AA0004FF47A7190FBF1F0401C2084A6832088DB
:100AB00040F00100208026884FF6F5300640A888D7
:100AC0006989084306432680A8892989084320812B
:100AD00005B0BDE8F083000000127A0040420F002C
:100AE000A08601002DE9F04106460F4615461C463A
:100AF00000BF4FF400313248FFF760FF0028F8D103
:100B000001212F48FFF742FF00BF2E492C48FFF775
:100B1000DDFE0028F9D000223146294800F0E0F837
:100B200000BF29492648FFF7D1FE0028F9D001214E
:100B30002348FFF7E0FE3946214800F0DAF800BF0D
:100B40002149891C1E48FFF7C1FE0028F8D0012169
:100B50001B48FFF71BFF00BF1A491948FFF7B6FEF5
:100B60000028F9D001223146154800F0B9F800BF3D
:100B70001449491C1248FFF7A9FE0028F8D016E0D6
:100B8000012C07D100210E48FFF794FE01210C48EB
:100B9000FFF708FF0B493F310948FFF797FE30B1D7
:100BA000074800F013F828706D1C601E84B2002CFA
:100BB000E6D101210248FFF77DFEBDE8F08100008B
:100BC0000054004001000300820007000146088A2B
:100BD000C0B270472DE9F04105460F4614461E4647
:100BE00001211D48FFF7D2FE00BF1C491A48FFF73C
:100BF0006DFE0028F9D000222946174800F070F851
:100C000000BF17491448FFF761FE0028F9D03946A4
:100C1000114800F06EF800BF1149891C0E48FFF71B
:100C200055FE0028F8D00CE021780B4800F061F860
:100C3000641C00BF0A49891C0748FFF747FE0028CB
:100C4000F8D0301EA6F101018EB2EDD1012102488B
:100C5000FFF7A8FEBDE8F08100540040010003004A
:100C60008200070070B504460E461546012119485A
:100C7000FFF78CFE00BF18491648FFF727FE002833
:100C8000F9D000222146134800F02AF800BF13498A
:100C90001048FFF71BFE0028F9D031460D4800F040
:100CA00028F800BF0D49891C0A48FFF70FFE0028ED
:100CB000F8D02946074800F01CF800BF0749891CF6
:100CC0000448FFF703FE0028F8D001210148FFF790
:100CD00069FE70BD0054004001000300820007005F
:100CE00012B141F0010102E04FF6FE73194001829A
:100CF0007047018270470146CA1701EB9272921049
:100D0000A1EB820292B9642091FBF0F200FB121079
:100D100050B94FF4C87091FBF0F200FB121008B903
:100D2000012070470020FCE70120FAE70020F8E7E7
:100D3000F8B5064602236A4600219E20FFF7D2FE40
:100D4000002400259DF800400020307004F0800051
:100D500028B101203070E043C4B2601CC4B204F07A
:100D6000010008B1681CC5B204F0020008B1A81C5B
:100D7000C5B204F0040008B1281DC5B204F0080093
:100D800010B105F10800C5B204F0100010B105F172
:100D90001000C5B204F0200010B105F12000C5B26A
:100DA00004F0400010B105F14000C5B2761C35706A
:100DB00000259DF8014004F0200010B105F10C0061
:100DC000C5B204F0400010B105F11900C5B204F03D
:100DD000800010B105F13200C5B2761C3570F8BD47
:100DE00000BFFEE7704700002DE9F04705460C46BE
:100DF00016464FF00008A01CC4B2C14636E005F10B
:100E0000B000C2B200217820FFF72CFF2746E01780
:100E100004EB107000111030C2B200217820FFF7EF
:100E200021FFE01704EB10700011A4EB0010C2B218
:100E300000217820FFF716FF00270FE008EB0610CF
:100E4000A0F500700C490A5C40217820FFF70AFFEA
:100E500008F1010000F0FF08781CC7B2082FEDDB95
:100E6000681CC5B209F1010000F0FF09B9F1020FD9
:100E7000C5DBBDE8F0870000801C000870B50646A1
:100E80000C46002508E014F8012BE806010E304658
:100E9000FFF7AAFF681CC5B220780028F3D170BD07
:100EA00070B5B0241BE0224600217820FFF7DAFE5F
:100EB000102200217820FFF7D5FE022200217820A1
:100EC000FFF7D0FE002506E0002240217820FFF742
:100ED000C9FE681CC5B2802DF6DB601CC4B2B82CFC
:100EE000E1DB70BD08B505A00068009003236A46E9
:100EF00000217820FFF76EFE08BD0000AE8D1000C7
:100F000000B587B01C2206A16846FFF75EF91C23D6
:100F10006A4600217820FFF75DFE07B000BD0000A3
:100F2000AE0010D580A83FD300B0408D14A1C8DA20
:100F30001281FFD9F1DB302000A4A6AF70B50024E8
:100F400020E004F1B000C2B200217820FFF78AFE51
:100F5000102200217820FFF785FE02220021782050
:100F6000FFF780FE002509E005EBC41007490A5C85
:100F700040217820FFF776FE681CC5B2802DF3DB98
:100F8000601CC4B2082CDCDB70BD0000E02200084D
:100F900010B5FFF7A7FFFFF783FFFFF7B1FF10BD05
:100FA000014908627047000000000E4270470000CF
:100FB00029B1064A52690243044B5A6104E0034ACC
:100FC00052698243014B5A61704700000010024091
:100FD00029B1064AD2690243044BDA6104E0034AAC
:100FE000D2698243014BDA61704700000010024071
:100FF00029B1064A92690243044B9A6104E0034A0C
:1010000092698243014B9A617047000000100240D0
:101010000149086070470000400442420348406AAA
:1010200040F08070014948627047000000100240A3
:1010300010B500F035F84FF4803000F0F3F800F010
:1010400077F90446012C24D14FF4E011000400F09C
:1010500047F9002000F0DAF8A00200F023F90020A0
:1010600000F02CF90220FFF783FB1020FFF772FB42
:10107000012000F02FF900BF392000F0A1F800286E
:10108000FAD0022000F048F900BF00F0B7F80828B5
:10109000FBD1012144F27C00FFF7AAFF10BD000044
:1010A0000F48006840F001000D490860084640689C
:1010B0000C4908400A494860084600680A49084047
:1010C000074908600846006820F480200860084648
:1010D000406820F4FE0048604FF41F0088607047AD
:1010E000001002400000FFF8FFFFF6FE30B50021BF
:1010F0000022002400232D4D6D6805F00C0121B164
:10110000042905D0082923D105E0294D056022E0F6
:10111000274D05601FE0254D6D6805F47012234DC5
:101120006D6805F48034022505EB92421CB9214D0F
:10113000554305600BE01D4D6D6805F400351DB18C
:101140001C4D5543056002E0194D5543056002E012
:10115000174D056000BF00BF144D6D6805F0F0012C
:101160000909154D6B5C0568DD4045600F4D6D68E4
:1011700005F4E061090A104D6B5C4568DD4085604F
:101180000A4D6D6805F46051C90A0B4D6B5C4568EA
:10119000DD40C560054D6D6805F44041890B074D84
:1011A0006B5CC568B5FBF3F5056130BD001002400E
:1011B00000127A0000093D0000000020100000200D
:1011C00010B501460022002300204A11012A02D155
:1011D000094C236806E0022A02D1074C236A01E089
:1011E000054C636A01F01F02012494401C400CB1BD
:1011F000012000E0002010BD0010024002484068BD
:1012000000F00C0070470000001002400146002072
:10121000034A506820F0F000084350607047000017
:10122000001002401149096821F480310F4A116011
:101230001146096821F480211160B0F5803F03D088
:10124000B0F5802F0ED106E00849096841F48031DD
:10125000064A116007E00549096841F4A021034AE4
:10126000116000E000BF00BF7047000000100240A6
:1012700000210B4A11700A4A203A82F820100128F6
:1012800002D0042808D103E00121054A117004E0CE
:101290000521034A117000E000BF00BF7047000045
:1012A0002010024001460020034A506820F4E0600C
:1012B00008435060704700000010024001460020C3
:1012C000034A506820F4605040EAC1005060704703
:1012D00000100240014908667047000000004242C9
:1012E00002460020044B586820F47C1042EA0103B7
:1012F0001843014B586070470010024001490860D4
:10130000704700003C0442420249096A0143014A15
:10131000116270470010024001460020034A5068E5
:1013200020F00300084350607047000000100240A6
:1013300038B5002000900024002500BF3120FFF7C1
:101340003FFF05460098401C00900098B0F5A06F44
:1013500001D0002DF2D03120FFF732FF08B1012477
:1013600000E00024204638BD10B5022000F002F94C
:10137000022000F003F800F065F910BD0249098869
:101380008143014A118070470428004010B50420B1
:10139000FFF7F0F84AF2A551884207D000F02AF88A
:1013A0004AF2A5510420FFF7F3F80DE07B20FFF788
:1013B00007FF10B97A20FFF703FFFFF72FFE012088
:1013C000FFF79CFF00F048F910BD000003480088BB
:1013D00040F01000014908807047000004280040D8
:1013E000034800884FF6EF710840014908807047B4
:1013F0000428004010B501214FF0C050FFF7E8FD70
:101400000120FFF7CDFDFFF7ACF80120FFF730FF1B
:1014100000BF4120FFF7D4FE0028FAD04FF48070BF
:10142000FFF772FF0120FFF769FF00F015F900F0E8
:1014300009F947F6FF7000F0F5F800F003F910BD68
:1014400070B500260024002500F08AF806463A48C8
:10145000B6FBF0F439480088A0423DD037490C80F3
:1014600040F2B27510E02846FFF745FC40B1B4F5F4
:10147000B77F02D3A4F5B77404E0681C85B206E018
:10148000A4F26D14681C85B2B4F5B67FEBD800BF2A
:101490002B480580002516E029480088FFF72BFC23
:1014A00030B1012D04D11D2C01D31D3C09E00CE00D
:1014B0002448405DA04203D82248405D241A00E041
:1014C00003E0681C85B21C2CE6D200BF681C1E49D4
:1014D0000870601C1D4908701748B6FBF0F100FB4E
:1014E00011644FF46160B4FBF0F0194908704FF4D7
:1014F0006160B4FBF0F100FB11403C21B0FBF1F066
:10150000144908704FF46160B4FBF0F100FB114026
:101510003C21B0FBF1F201FB12000F4908700B48AF
:101520000278094801780648008800F035F80B4930
:101530000870002070BD00008051010022000020D2
:101540001A000020EC2600081C0000201D000020CE
:101550001E0000201F00002020000020210000208D
:10156000002103480188001F008841EA00407047BD
:101570001C28004001460020064A12880A40D0B2CA
:10158000044A121F12880A4012B108B1012000E07B
:101590000020704704280040F0B503460C4615466D
:1015A000642093FBF0F0C6B2642093FBF0F700FBDD
:1015B0001730C1B2132E02DD01F16400C1B208463A
:1015C000CF1701EB977701EBA707BAB2072092FB81
:1015D000F0F700FB172082B25719601EDFF82CC00D
:1015E0001CF80000384482B2CF1701EB9777BF1088
:1015F000A1EB87071FB9032C01DA501E82B2072026
:1016000092FBF0F700FB1720C0B2F0BDE026000807
:1016100010B50120FFF7AEFF0120FFF7AFFE00F08D
:1016200011F810BD00B50246FFF7D0FEC2F303402B
:1016300003490880091D0A80FFF7D2FE00BD0000A3
:101640000828004000BF0348008800F02000002860
:10165000F9D0704704280040074800884FF6F7711A
:1016600008400549088000BF0348008800F00800D2
:101670000028F9D07047000004280040704710B5DA
:1016800000F002F810BD00000CB5002001900090A1
:101690003348006840F480303149086000BF30486A
:1016A000006800F4003000900198401C0190009800
:1016B00018B90198B0F5A06FF1D12948006800F47D
:1016C000003010B10120009001E00020009000984F
:1016D000012843D12348006840F0100021490860E8
:1016E0000846006820F0030008600846006840F0E3
:1016F000020008601A484068194948600846406876
:1017000048600846406840F4806048600846406889
:1017100020F47C1048600846406840F4E8104860B7
:101720000846006840F08070086000BF0C48006800
:1017300000F000700028F9D00948406820F003004C
:10174000074948600846406840F00200486000BF12
:101750000348406800F00C000828F9D10CBD0000D7
:1017600000100240002002407047000010B51348EE
:10177000006840F0010011490860084640681049BF
:1017800008400E494860084600680E4908400B4969
:1017900008600846006820F4802008600846406819
:1017A00020F4FE0048604FF41F008860FFF767FFD9
:1017B0004FF000600449086010BD000000100240B6
:1017C0000000FFF8FFFFF6FE08ED00E008B501217C
:1017D0000420FFF70DFC0F20ADF8000003208DF86A
:1017E000020048208DF8030069460248FEF7CCFF4E
:1017F00008BD00000008014010B540F225510A481C
:1018000000F016F870B1084800F03CF8C4B2532C50
:1018100003D101200549088004E04B2C02D10220AD
:101820000249088010BD0000004800401800002058
:1018300070B50246002400230025002040F66A16F9
:10184000B14200D100BFC1F3421501F01F030126D0
:1018500006FA03F3012D02D19689334006E0022DEA
:1018600002D1168A334001E0968A33400C120126D9
:1018700006FA04F41688344013B10CB1012000E0DC
:10188000002070BD01468888C0F30800704700BF83
:10189000FEE7014600BF704700B5034603E04FF482
:1018A0007A7000F006F8181EA3F101018BB2F6D190
:1018B00000BD00EBC001C9004FF0E02251610021E2
:1018C00091610521116100BF4FF0E021096901F428
:1018D00080310029F8D004214FF0E02211617047D7
:1018E0001CB56420FFF7D8FFFFF7A2FBFFF74EFD02
:1018F000FFF76CFFFFF70CF8FFF74AFBFEF7DAFC87
:1019000001210820FFF774FB48208DF80700042010
:10191000ADF8040003208DF8060001A9C248FEF7C7
:1019200033FFFFF70BFB0026002400257AE1684611
:10193000FFF7FEF9FFF784FD6420FFF7ADFF0421F8
:10194000B948FEF7ACFF58B9FFF7AAFAFFF7F6FA65
:10195000002600BF0421B448FEF7A1FF0028F9D0FB
:10196000B248808840F6B83188420BDB022600BFBF
:10197000AE48808840F6B8318842F9DA0025002464
:10198000FFF78EFAA9488088B0F57A7F08DC012637
:1019900000BFA6488088B0F57A7FFADDFFF780FAAD
:1019A000012E02D0022E7DD18EE0A1A10020FFF7F2
:1019B00065FAA3A10320FFF761FAA3A10620FFF7B0
:1019C0005DFA9DF80000012804D12D222821032072
:1019D000FFF70AFA9DF801000A2190FBF1F0303080
:1019E00087B23A4630210320FFF7FEF99DF8010047
:1019F0000A2190FBF1F201FB1200303087B23A4627
:101A000038210320FFF7F0F92E2240210320FFF7B1
:101A1000EBF99DF802000A2190FBF1F0303087B21B
:101A20003A4648210320FFF7DFF99DF802000A211A
:101A300090FBF1F201FB1200303087B23A465021A0
:101A40000320FFF7D1F9794840884FF47A7190FB71
:101A5000F1F0303087B23A4638210620FFF7C4F95A
:101A6000724840884FF47A7190FBF1F201FB12004A
:101A7000642190FBF1F0303087B23A4640210620D5
:101A8000FFF7B2F969484088642190FBF1F201FB4D
:101A900012000A2190FBF1F0303087B23A4648211B
:101AA000062000E0BDE0FFF79FF9604840880A216A
:101AB00090FBF1F201FB1200303087B23A46502120
:101AC0000620FFF791F9ACE061A10020FFF7D6F9FD
:101AD00062A10320FFF7D2F962A10620FFF7CEF939
:101AE000634800780A2190FBF1F0303087B23A4623
:101AF00030210320FFF778F95D4800780A2190FB38
:101B0000F1F201FB1200303087B23A46382103204F
:101B1000FFF76AF93A2240210320FFF765F955489B
:101B200000780A2190FBF1F0303087B23A46482124
:101B30000320FFF759F94F4800780A2190FBF1F292
:101B400001FB1200303087B23A4650210320FFF7E4
:101B50004BF93A2258210320FFF746F9464800780E
:101B60000A2190FBF1F0303087B23A466021032021
:101B7000FFF73AF9404800780A2190FBF1F201FBA7
:101B80001200303087B23A4668210320FFF72CF963
:101B90000A2095FBF0F0303087B23A461821062033
:101BA000FFF722F90A2095FBF0F100FB11503030CD
:101BB00087B23A4620210620FFF716F90A2094FB47
:101BC000F0F0303087B23A4640210620FFF70CF99A
:101BD0000A2094FBF0F100FB1140303087B23A4606
:101BE00048210620FFF700F901212448FEF757FE9F
:101BF00040B9681CC5B200BF01212048FEF74FFE66
:101C00000028F9D002211D48FEF749FE40B9601CAA
:101C1000C4B200BF02211948FEF741FE0028F9D0E6
:101C200000BF00BF83E60000000C0140240000203C
:101C30002020456E7669726F6E6D656E74000000CF
:101C40002054656D3A000000204C696768743A00C2
:101C50002020202020436C6F636B00002054696DAE
:101C6000653A0000204C3A202020523A0000000043
:101C70001E0000201F00002020000020000801405E
:101C80000000000000000000000000000000000054
:101C9000000038FCFC3800000000000D0D000000C2
:101CA000000E1E00001E0E000000000000000000DC
:101CB00020F8F820F8F82000020F0F020F0F0200A2
:101CC000387C444747CC98000306041C1C070300DB
:101CD00030300080C06030000C060301000C0C00A6
:101CE00080D87CE4BCD84000070F0808070F080024
:101CF00000101E0E000000000000000000000000A8
:101D00000000F0F80C040000000003070C080000BD
:101D10000000040CF8F000000000080C07030000AD
:101D200080A0E0C0C0E0A080000203010103020027
:101D3000008080E0E08080000000000303000000DD
:101D400000000000000000000000101E0E00000057
:101D50008080808080808000000000000000000003
:101D600000000000000000000000000C0C0000005B
:101D700000000080C06030000C060301000000007D
:101D8000F8FC04C424FCF800070F0908080F07003A
:101D9000001018FCFC0000000008080F0F080800E5
:101DA000080C84C4643C18000E0F0908080C0C00D1
:101DB000080C444444FCB800040C0808080F070051
:101DC000C0E0B098FCFC8000000000080F0F080085
:101DD0007C7C4444C4C48400040C0808080F070039
:101DE000F0F84C4444C08000070F0808080F0700B3
:101DF0000C0C0484C47C3C0000000F0F00000000A9
:101E0000B8FC444444FCB800070F0808080F07005A
:101E1000387C444444FCF800000808080C07030020
:101E20000000003030000000000000060600000046
:101E300000000030300000000000080E0600000026
:101E40000080C0603018080000000103060C080084
:101E500040404040404040000202020202020200B4
:101E60000008183060C0800000080C060301000064
:101E7000181C04C4E43C18000000000D0D00000014
:101E8000F0F808C8C8F8F000070F080B0B0B0100AA
:101E9000E0F0988C98F0E0000F0F0000000F0F00AA
:101EA00004FCFC4444FCB800080F0F08080F0700AE
:101EB000F0F80C04040C180003070C08080C0600CA
:101EC00004FCFC040CF8F000080F0F080C070300DA
:101ED00004FCFC44E40C1C00080F0F08080C0E0066
:101EE00004FCFC44E40C1C00080F0F080000000078
:101EF000F0F80C84848C980003070C0808070F0086
:101F0000FCFC404040FCFC000F0F0000000F0F00E5
:101F1000000004FCFC0400000000080F0F08000093
:101F200000000004FCFC0400070F08080F07000075
:101F300004FCFCC0F03C0C00080F0F00010F0E0069
:101F400004FCFC0400000000080F0F08080C0E0041
:101F5000FCFC387038FCFC000F0F0000000F0F0075
:101F6000FCFC3870E0FCFC000F0F0000000F0F00BD
:101F7000F0F80C040CF8F00003070C080C07030041
:101F800004FCFC44447C3800080F0F0800000000EB
:101F9000F8FC040404FCF800070F080E3C3F27007F
:101FA00004FCFC44C4FC3800080F0F00000F0F00B5
:101FB000183C6444C49C1800060E0808080F07006B
:101FC000001C0CFCFC0C1C000000080F0F0800009B
:101FD000FCFC000000FCFC00070F0808080F0700CD
:101FE000FCFC000000FCFC000103060C06030100E1
:101FF000FCFC008000FCFC00030F0E030E0F03002E
:102000000C3CF0C0F03C0C000C0F0300030F0C0064
:10201000003C7CC0C07C3C000000080F0F080000A2
:102020001C0C84C4643C1C000E0F0908080C0E0034
:102030000000FCFC0404000000000F0F0808000072
:102040003870E0C0800000000000000103070E00AF
:1020500000000404FCFC0000000008080F0F000052
:10206000080C0603060C0800000000000000000039
:102070000000000000000000202020202020202060
:102080000000030704000000000000000000000042
:1020900000A0A0A0E0C00000070F0808070F08007C
:1020A00004FCFC2060C08000080F0708080F070030
:1020B000C0E0202020604000070F0808080C040042
:1020C00080C06024FCFC0000070F0808070F080010
:1020D000C0E0A0A0A0E0C000070F0808080C0400A2
:1020E00040F8FC440C180000080F0F080000000026
:1020F000C0E02020C0E02000276F48487F3F00005C
:1021000004FCFC4020E0C000080F0F00000F0F008F
:10211000000020ECEC0000000000080F0F08000099
:102120000000000020ECEC0000307040407F3F00D9
:1021300004FCFC80C0602000080F0F01030E0C009F
:10214000000004FCFC0000000000080F0F08000065
:10215000E0E060C060E0C0000F0F000F000F0F0054
:1021600020E0C02020E0C000000F0F00000F0F0093
:10217000C0E0202020E0C000070F0808080F07007B
:1021800020E0C02020E0C000407F7F48080F07000B
:10219000C0E02020C0E02000070F08487F7F4000FB
:1021A00020E0C0602060C000080F0F0800000000A1
:1021B00040E0A02020604000040C09090B0E040040
:1021C0002020F8FC202000000000070F080C04006D
:1021D000E0E00000E0E00000070F0808070F08003B
:1021E00000E0E00000E0E0000003070C0C07030043
:1021F000E0E0000000E0E000070F0C070C0F070014
:102200002060C080C0602000080C0703070C080095
:10221000E0E0000000E0E000474F4848683F1F0052
:10222000606020A0E06020000C0E0B09080C0C0080
:10223000004040F8BC040400000000070F0808003C
:10224000000000BCBC0000000000000F0F000000F8
:10225000000404BCF84040000008080F070000001C
:10226000080C040C080C0400000000000000000032
:1022700080C0603060C080000707040404070700C6
:102280000404F494959694F404FE0242B20E000005
:1022900010121252927A161200FF081020110E002E
:1022A000000212620202FE000212620202FF02003B
:1022B00000040C4281403F00040C4281403F00007A
:1022C00000203827A07020900C030C102060200004
:1022D000002262231212003F444442434070000037
:1022E00000000000000000000000000000000000EE
:1022F00000000000000000000000000000000000DE
:1023000000000000000000000000000000000000CD
:1023100000000000000000000000000000000000BD
:1023200000000000000000000000000000000000AD
:10233000000000000000000000000000000000009D
:10234000000000000000000000000000000000008D
:10235000000000000000000000000000000000007D
:10236000000000000000000000000000000000006D
:1023700000C0E0E0F07038381C1C0C0E0E0E060693
:102380000707070703030303030707070706060EEC
:102390000E0E0E1C1C1C387870F0E0C0800000008F
:1023A000000000000000000000000000000000002D
:1023B000000000000000000000000000000000001D
:1023C000000000000000000000000000000000000D
:1023D00000000000000000000000000000000000FD
:1023E0000080E0E0E070703030303030303070FE2F
:1023F000FFFF0301000E1F1F1F0000000000000070
:1024000000000000000000000000000000000000CC
:1024100000000000000000000000C3FFFFFEC0C07D
:10242000C0C0C0C0C0C0C0C0C0C0C0C0C0C0C0C0AC
:10243000C0C0C0C0C0C0808080808080000000001C
:10244000000000000000000000000000000000008C
:10245000000000000000000000000000000000007C
:1024600000010707063E7E7E6EE6E6E7E7676773D4
:10247000777F7F7E3C3838383070F0F0F0706060E5
:10248000000000000000000000000000000000004C
:102490000000000080C0C0C4E6676773717131310D
:1024A0003139391918181818181838383830307068
:1024B0007071F1E1E1E1C1C1810303030307070783
:1024C000060E0E0E1C1C1E0E060606070707070743
:1024D000070707060E0E1E1C7CF8F0C00000000067
:1024E00000000000000000000000000000000000EC
:1024F0000000000000000000F8FFFF0F01000000D6
:10250000000000000000000000000000000000E0EB
:10251000F8FCFF0F0703010100000000F0F0F0F0ED
:10252000F0400000000000000000E0F0F0F0F0F0EB
:102530000000000000010303070F1FFEFCF0000075
:10254000000000000000000000000000000000008B
:10255000000000000000C0E0FC7F3F07000000001A
:10256000000000000000000000000000000000006B
:102570000000000000000000030F1F3E78F0E0C0E4
:10258000C08080800000000000000000000000010A
:10259000070F1F3C38000000000000000000010190
:1025A0000000000000000000000000000101010028
:1025B00000000000E0F07070383C1F0F07010000C1
:1025C000000000000000808080C0C0C0E0E07070AB
:1025D00078381C1E0F0F07030100000000000000E8
:1025E00000000000000000000000000000000000EB
:1025F00000000000000000000000000000000001DA
:10260000018383C3C7E7F777767E3E3E3C1C9CCCB4
:10261000CC0C1C1C1C1C1C1C1C1C1C18181818186E
:10262000181818181818181818181818181C1C1C1E
:102630001C1C1C1C0C0C0C0C0C0ECECECE8E1E1EAC
:102640001E3F3F377373E3E3C3C1C18080000000C6
:10265000000000000000000000000000000000007A
:10266000000000000000000000000000000000006A
:1026700000000000C0C0E0E0F078383C1C1E0E0FE7
:10268000070303010100000080C0F0783E1F07032C
:102690000100000000000000000000000000000039
:1026A000000000000000000000000000000000002A
:1026B000000000000000000000000001030F1F7E6A
:1026C000F8F0C000000000000001030307070F0E30
:1026D0001E3C383870E0E0C0C08000000000000000
:1026E0000003030601040602050003051F1C1F1E4C
:1026F0001F1E1F1F1E1F1E1F18270008000000207E
:102700002C00000028010008442700082C000020AD
:1027100064060000440100080000000001020304F8
:10272000010203040607080902040608000000006D
:102730000000000000000000000000000000000099
:042740000000000095
:04000005080000ED02
:00000001FF
